{
  "contractName": "YFOXswap",
  "abi": [
    {
      "inputs": [],
      "stateMutability": "nonpayable",
      "type": "constructor"
    },
    {
      "stateMutability": "payable",
      "type": "receive",
      "payable": true
    },
    {
      "inputs": [],
      "name": "getWETHAddress",
      "outputs": [
        {
          "internalType": "address",
          "name": "",
          "type": "address"
        }
      ],
      "stateMutability": "view",
      "type": "function",
      "constant": true
    },
    {
      "inputs": [
        {
          "internalType": "uint256",
          "name": "_amountIn",
          "type": "uint256"
        },
        {
          "internalType": "uint256",
          "name": "_amountOutMin",
          "type": "uint256"
        },
        {
          "internalType": "address[]",
          "name": "_tokenAddresses",
          "type": "address[]"
        },
        {
          "internalType": "address",
          "name": "_swapCaller",
          "type": "address"
        },
        {
          "internalType": "uint256",
          "name": "_timeline",
          "type": "uint256"
        }
      ],
      "name": "swapYFOXWithAnyERC20",
      "outputs": [
        {
          "internalType": "uint256[]",
          "name": "amounts",
          "type": "uint256[]"
        }
      ],
      "stateMutability": "nonpayable",
      "type": "function"
    },
    {
      "inputs": [
        {
          "internalType": "uint256",
          "name": "_amountOut",
          "type": "uint256"
        },
        {
          "internalType": "uint256",
          "name": "_amountInMax",
          "type": "uint256"
        },
        {
          "internalType": "address[]",
          "name": "_tokenAddresses",
          "type": "address[]"
        },
        {
          "internalType": "address",
          "name": "_swapCaller",
          "type": "address"
        },
        {
          "internalType": "uint256",
          "name": "_timeline",
          "type": "uint256"
        }
      ],
      "name": "swapAnyERC20WithYFOX",
      "outputs": [
        {
          "internalType": "uint256[]",
          "name": "amounts",
          "type": "uint256[]"
        }
      ],
      "stateMutability": "nonpayable",
      "type": "function"
    },
    {
      "inputs": [
        {
          "internalType": "address[]",
          "name": "_tokenAddresses",
          "type": "address[]"
        },
        {
          "internalType": "uint256",
          "name": "_amountOutMin",
          "type": "uint256"
        },
        {
          "internalType": "uint256",
          "name": "_timeline",
          "type": "uint256"
        }
      ],
      "name": "swapInputETHForYFOX",
      "outputs": [
        {
          "internalType": "uint256[]",
          "name": "amounts",
          "type": "uint256[]"
        }
      ],
      "stateMutability": "payable",
      "type": "function",
      "payable": true
    },
    {
      "inputs": [
        {
          "internalType": "uint256",
          "name": "_amountOut",
          "type": "uint256"
        },
        {
          "internalType": "uint256",
          "name": "_amountInMax",
          "type": "uint256"
        },
        {
          "internalType": "address[]",
          "name": "_tokenAddresses",
          "type": "address[]"
        },
        {
          "internalType": "uint256",
          "name": "_timeline",
          "type": "uint256"
        }
      ],
      "name": "swapOutputETHForYFOX",
      "outputs": [
        {
          "internalType": "uint256[]",
          "name": "amounts",
          "type": "uint256[]"
        }
      ],
      "stateMutability": "payable",
      "type": "function",
      "payable": true
    },
    {
      "inputs": [
        {
          "internalType": "uint256",
          "name": "_amountIn",
          "type": "uint256"
        },
        {
          "internalType": "uint256",
          "name": "_amountOutMin",
          "type": "uint256"
        },
        {
          "internalType": "address[]",
          "name": "_tokenAddresses",
          "type": "address[]"
        },
        {
          "internalType": "uint256",
          "name": "_timeline",
          "type": "uint256"
        }
      ],
      "name": "swapInputYFOXForETH",
      "outputs": [
        {
          "internalType": "uint256[]",
          "name": "amounts",
          "type": "uint256[]"
        }
      ],
      "stateMutability": "nonpayable",
      "type": "function"
    },
    {
      "inputs": [
        {
          "internalType": "uint256",
          "name": "_amountOut",
          "type": "uint256"
        },
        {
          "internalType": "uint256",
          "name": "_amountInMax",
          "type": "uint256"
        },
        {
          "internalType": "address[]",
          "name": "_tokenAddresses",
          "type": "address[]"
        },
        {
          "internalType": "uint256",
          "name": "_timeline",
          "type": "uint256"
        }
      ],
      "name": "swapOutputYFOXForETH",
      "outputs": [
        {
          "internalType": "uint256[]",
          "name": "amounts",
          "type": "uint256[]"
        }
      ],
      "stateMutability": "nonpayable",
      "type": "function"
    },
    {
      "inputs": [
        {
          "internalType": "address",
          "name": "_token0",
          "type": "address"
        },
        {
          "internalType": "address",
          "name": "_token1",
          "type": "address"
        },
        {
          "internalType": "uint256",
          "name": "_amountADesired",
          "type": "uint256"
        },
        {
          "internalType": "uint256",
          "name": "_amountBDesired",
          "type": "uint256"
        },
        {
          "internalType": "address",
          "name": "_creator",
          "type": "address"
        },
        {
          "internalType": "uint256",
          "name": "_timeline",
          "type": "uint256"
        }
      ],
      "name": "addLiquidityPoolWithAnyERC20",
      "outputs": [
        {
          "internalType": "uint256",
          "name": "amountA",
          "type": "uint256"
        },
        {
          "internalType": "uint256",
          "name": "amountB",
          "type": "uint256"
        },
        {
          "internalType": "uint256",
          "name": "liquidity",
          "type": "uint256"
        }
      ],
      "stateMutability": "nonpayable",
      "type": "function"
    },
    {
      "inputs": [
        {
          "internalType": "address",
          "name": "_poolToken",
          "type": "address"
        },
        {
          "internalType": "uint256",
          "name": "_amountTokenDesired",
          "type": "uint256"
        },
        {
          "internalType": "uint256",
          "name": "_timeline",
          "type": "uint256"
        }
      ],
      "name": "addLiquidityPoolWithETH",
      "outputs": [
        {
          "internalType": "uint256",
          "name": "amountToken",
          "type": "uint256"
        },
        {
          "internalType": "uint256",
          "name": "amountETH",
          "type": "uint256"
        },
        {
          "internalType": "uint256",
          "name": "liquidity",
          "type": "uint256"
        }
      ],
      "stateMutability": "payable",
      "type": "function",
      "payable": true
    },
    {
      "inputs": [
        {
          "internalType": "address",
          "name": "_token0",
          "type": "address"
        },
        {
          "internalType": "address",
          "name": "_token1",
          "type": "address"
        },
        {
          "internalType": "uint256",
          "name": "_liquidity",
          "type": "uint256"
        },
        {
          "internalType": "address",
          "name": "_caller",
          "type": "address"
        },
        {
          "internalType": "uint256",
          "name": "_timeline",
          "type": "uint256"
        },
        {
          "internalType": "bool",
          "name": "_approveMax",
          "type": "bool"
        },
        {
          "internalType": "uint8",
          "name": "v",
          "type": "uint8"
        },
        {
          "internalType": "bytes32",
          "name": "r",
          "type": "bytes32"
        },
        {
          "internalType": "bytes32",
          "name": "s",
          "type": "bytes32"
        }
      ],
      "name": "removeLiquidityFromPoolsWithPermit",
      "outputs": [
        {
          "internalType": "uint256",
          "name": "amountA",
          "type": "uint256"
        },
        {
          "internalType": "uint256",
          "name": "amountB",
          "type": "uint256"
        }
      ],
      "stateMutability": "nonpayable",
      "type": "function"
    },
    {
      "inputs": [
        {
          "internalType": "address",
          "name": "_poolToken",
          "type": "address"
        },
        {
          "internalType": "uint256",
          "name": "_liquidity",
          "type": "uint256"
        },
        {
          "internalType": "address",
          "name": "_caller",
          "type": "address"
        },
        {
          "internalType": "uint256",
          "name": "_timeline",
          "type": "uint256"
        },
        {
          "internalType": "bool",
          "name": "_approveMax",
          "type": "bool"
        },
        {
          "internalType": "uint8",
          "name": "v",
          "type": "uint8"
        },
        {
          "internalType": "bytes32",
          "name": "r",
          "type": "bytes32"
        },
        {
          "internalType": "bytes32",
          "name": "s",
          "type": "bytes32"
        }
      ],
      "name": "removeLiquidityFromETHPoolsWithPermit",
      "outputs": [
        {
          "internalType": "uint256",
          "name": "amountToken",
          "type": "uint256"
        },
        {
          "internalType": "uint256",
          "name": "amountETH",
          "type": "uint256"
        }
      ],
      "stateMutability": "nonpayable",
      "type": "function"
    }
  ],
  "bytecode": "0x608060405234801561001057600080fd5b506001600081905550737a250d5630b4cf539739df2c5dacb4c659f2488d600160006101000a81548173ffffffffffffffffffffffffffffffffffffffff021916908373ffffffffffffffffffffffffffffffffffffffff160217905550613b568061007d6000396000f3fe6080604052600436106100a05760003560e01c806382bc8d971161006457806382bc8d9714610604578063a7d4e241146106e6578063a90d35fe146107b7578063affa881714610831578063de2bd9db14610888578063fdbbb5e314610981576100a7565b80632ad60751146100ac5780634d62be0b1461020457806352bed6e8146102f25780636b3bb283146103c05780637a30ef5f14610518576100a7565b366100a757005b600080fd5b3480156100b857600080fd5b506101ad600480360360a08110156100cf57600080fd5b8101908080359060200190929190803590602001909291908035906020019064010000000081111561010057600080fd5b82018360208201111561011257600080fd5b8035906020019184602083028401116401000000008311171561013457600080fd5b919080806020026020016040519081016040528093929190818152602001838360200280828437600081840152601f19601f820116905080830192505050505050509192919290803573ffffffffffffffffffffffffffffffffffffffff16906020019092919080359060200190929190505050610a7a565b6040518080602001828103825283818151815260200191508051906020019060200280838360005b838110156101f05780820151818401526020810190506101d5565b505050509050019250505060405180910390f35b34801561021057600080fd5b506102d5600480360361012081101561022857600080fd5b81019080803573ffffffffffffffffffffffffffffffffffffffff169060200190929190803573ffffffffffffffffffffffffffffffffffffffff16906020019092919080359060200190929190803573ffffffffffffffffffffffffffffffffffffffff16906020019092919080359060200190929190803515159060200190929190803560ff1690602001909291908035906020019092919080359060200190929190505050610fac565b604051808381526020018281526020019250505060405180910390f35b3480156102fe57600080fd5b506103a3600480360361010081101561031657600080fd5b81019080803573ffffffffffffffffffffffffffffffffffffffff16906020019092919080359060200190929190803573ffffffffffffffffffffffffffffffffffffffff16906020019092919080359060200190929190803515159060200190929190803560ff16906020019092919080359060200190929190803590602001909291905050506112a3565b604051808381526020018281526020019250505060405180910390f35b3480156103cc57600080fd5b506104c1600480360360a08110156103e357600080fd5b8101908080359060200190929190803590602001909291908035906020019064010000000081111561041457600080fd5b82018360208201111561042657600080fd5b8035906020019184602083028401116401000000008311171561044857600080fd5b919080806020026020016040519081016040528093929190818152602001838360200280828437600081840152601f19601f820116905080830192505050505050509192919290803573ffffffffffffffffffffffffffffffffffffffff169060200190929190803590602001909291905050506114c2565b6040518080602001828103825283818151815260200191508051906020019060200280838360005b838110156105045780820151818401526020810190506104e9565b505050509050019250505060405180910390f35b6105ad6004803603608081101561052e57600080fd5b8101908080359060200190929190803590602001909291908035906020019064010000000081111561055f57600080fd5b82018360208201111561057157600080fd5b8035906020019184602083028401116401000000008311171561059357600080fd5b9091929391929390803590602001909291905050506119f4565b6040518080602001828103825283818151815260200191508051906020019060200280838360005b838110156105f05780820151818401526020810190506105d5565b505050509050019250505060405180910390f35b61068f6004803603606081101561061a57600080fd5b810190808035906020019064010000000081111561063757600080fd5b82018360208201111561064957600080fd5b8035906020019184602083028401116401000000008311171561066b57600080fd5b90919293919293908035906020019092919080359060200190929190505050611e88565b6040518080602001828103825283818151815260200191508051906020019060200280838360005b838110156106d25780820151818401526020810190506106b7565b505050509050019250505060405180910390f35b3480156106f257600080fd5b50610793600480360360c081101561070957600080fd5b81019080803573ffffffffffffffffffffffffffffffffffffffff169060200190929190803573ffffffffffffffffffffffffffffffffffffffff1690602001909291908035906020019092919080359060200190929190803573ffffffffffffffffffffffffffffffffffffffff1690602001909291908035906020019092919050505061231b565b60405180848152602001838152602001828152602001935050505060405180910390f35b61080d600480360360608110156107cd57600080fd5b81019080803573ffffffffffffffffffffffffffffffffffffffff1690602001909291908035906020019092919080359060200190929190505050612b5e565b60405180848152602001838152602001828152602001935050505060405180910390f35b34801561083d57600080fd5b506108466130f8565b604051808273ffffffffffffffffffffffffffffffffffffffff1673ffffffffffffffffffffffffffffffffffffffff16815260200191505060405180910390f35b34801561089457600080fd5b5061092a600480360360808110156108ab57600080fd5b810190808035906020019092919080359060200190929190803590602001906401000000008111156108dc57600080fd5b8201836020820111156108ee57600080fd5b8035906020019184602083028401116401000000008311171561091057600080fd5b9091929391929390803590602001909291905050506131a2565b6040518080602001828103825283818151815260200191508051906020019060200280838360005b8381101561096d578082015181840152602081019050610952565b505050509050019250505060405180910390f35b34801561098d57600080fd5b50610a23600480360360808110156109a457600080fd5b810190808035906020019092919080359060200190929190803590602001906401000000008111156109d557600080fd5b8201836020820111156109e757600080fd5b80359060200191846020830284011164010000000083111715610a0957600080fd5b9091929391929390803590602001909291905050506134e0565b6040518080602001828103825283818151815260200191508051906020019060200280838360005b83811015610a66578082015181840152602081019050610a4b565b505050509050019250505060405180910390f35b606060008611610af2576040517f08c379a00000000000000000000000000000000000000000000000000000000081526004018080602001828103825260158152602001807f4552524f523a20496e76616c696420496e70757421000000000000000000000081525060200191505060405180910390fd5b83600081518110610aff57fe5b602002602001015173ffffffffffffffffffffffffffffffffffffffff166323b872dd3330896040518463ffffffff1660e01b8152600401808473ffffffffffffffffffffffffffffffffffffffff1673ffffffffffffffffffffffffffffffffffffffff1681526020018373ffffffffffffffffffffffffffffffffffffffff1673ffffffffffffffffffffffffffffffffffffffff1681526020018281526020019350505050602060405180830381600087803b158015610bc157600080fd5b505af1158015610bd5573d6000803e3d6000fd5b505050506040513d6020811015610beb57600080fd5b8101908080519060200190929190505050610c6e576040517f08c379a00000000000000000000000000000000000000000000000000000000081526004018080602001828103825260168152602001807f4552524f523a2043616e2774205472616e73616374210000000000000000000081525060200191505060405180910390fd5b83600081518110610c7b57fe5b602002602001015173ffffffffffffffffffffffffffffffffffffffff1663095ea7b3737a250d5630b4cf539739df2c5dacb4c659f2488d886040518363ffffffff1660e01b8152600401808373ffffffffffffffffffffffffffffffffffffffff1673ffffffffffffffffffffffffffffffffffffffff16815260200182815260200192505050602060405180830381600087803b158015610d1d57600080fd5b505af1158015610d31573d6000803e3d6000fd5b505050506040513d6020811015610d4757600080fd5b8101908080519060200190929190505050610dca576040517f08c379a00000000000000000000000000000000000000000000000000000000081526004018080602001828103825260168152602001807f4552524f523a20417070726f7665204661696c6564210000000000000000000081525060200191505060405180910390fd5b600160009054906101000a900473ffffffffffffffffffffffffffffffffffffffff1673ffffffffffffffffffffffffffffffffffffffff166338ed173987878787876040518663ffffffff1660e01b815260040180868152602001858152602001806020018473ffffffffffffffffffffffffffffffffffffffff1673ffffffffffffffffffffffffffffffffffffffff168152602001838152602001828103825285818151815260200191508051906020019060200280838360005b83811015610ea3578082015181840152602081019050610e88565b505050509050019650505050505050600060405180830381600087803b158015610ecc57600080fd5b505af1158015610ee0573d6000803e3d6000fd5b505050506040513d6000823e3d601f19601f820116820180604052506020811015610f0a57600080fd5b8101908080516040519392919084640100000000821115610f2a57600080fd5b83820191506020820185811115610f4057600080fd5b8251866020820283011164010000000082111715610f5d57600080fd5b8083526020830192505050908051906020019060200280838360005b83811015610f94578082015181840152602081019050610f79565b50505050905001604052505050905095945050505050565b600080600073ffffffffffffffffffffffffffffffffffffffff168b73ffffffffffffffffffffffffffffffffffffffff161415611052576040517f08c379a00000000000000000000000000000000000000000000000000000000081526004018080602001828103825260138152602001807f4552524f523a2077757420746f6b656e30203f0000000000000000000000000081525060200191505060405180910390fd5b600073ffffffffffffffffffffffffffffffffffffffff168a73ffffffffffffffffffffffffffffffffffffffff1614156110f5576040517f08c379a00000000000000000000000000000000000000000000000000000000081526004018080602001828103825260138152602001807f4552524f523a2077757420746f6b656e31203f0000000000000000000000000081525060200191505060405180910390fd5b600160009054906101000a900473ffffffffffffffffffffffffffffffffffffffff1673ffffffffffffffffffffffffffffffffffffffff16632195995c8c8c8c6001808e8e8e8e8e8e6040518c63ffffffff1660e01b8152600401808c73ffffffffffffffffffffffffffffffffffffffff1673ffffffffffffffffffffffffffffffffffffffff1681526020018b73ffffffffffffffffffffffffffffffffffffffff1673ffffffffffffffffffffffffffffffffffffffff1681526020018a81526020018981526020018881526020018773ffffffffffffffffffffffffffffffffffffffff1673ffffffffffffffffffffffffffffffffffffffff168152602001868152602001851515151581526020018460ff1660ff1681526020018381526020018281526020019b5050505050505050505050506040805180830381600087803b15801561124857600080fd5b505af115801561125c573d6000803e3d6000fd5b505050506040513d604081101561127257600080fd5b8101908080519060200190929190805190602001909291905050508092508193505050995099975050505050505050565b600080600073ffffffffffffffffffffffffffffffffffffffff168a73ffffffffffffffffffffffffffffffffffffffff161415611349576040517f08c379a00000000000000000000000000000000000000000000000000000000081526004018080602001828103825260168152602001807f59464f58737761703a2077757420746f6b656e30203f0000000000000000000081525060200191505060405180910390fd5b600160009054906101000a900473ffffffffffffffffffffffffffffffffffffffff1673ffffffffffffffffffffffffffffffffffffffff1663ded9382a8b8b6001808d8d8d8d8d8d6040518b63ffffffff1660e01b8152600401808b73ffffffffffffffffffffffffffffffffffffffff1673ffffffffffffffffffffffffffffffffffffffff1681526020018a81526020018981526020018881526020018773ffffffffffffffffffffffffffffffffffffffff1673ffffffffffffffffffffffffffffffffffffffff168152602001868152602001851515151581526020018460ff1660ff1681526020018381526020018281526020019a50505050505050505050506040805180830381600087803b15801561146857600080fd5b505af115801561147c573d6000803e3d6000fd5b505050506040513d604081101561149257600080fd5b81019080805190602001909291908051906020019092919050505080925081935050509850989650505050505050565b60606000861161153a576040517f08c379a00000000000000000000000000000000000000000000000000000000081526004018080602001828103825260168152602001807f45524f52523a20496e76616c6964204f7574707574210000000000000000000081525060200191505060405180910390fd5b8360008151811061154757fe5b602002602001015173ffffffffffffffffffffffffffffffffffffffff166323b872dd3330886040518463ffffffff1660e01b8152600401808473ffffffffffffffffffffffffffffffffffffffff1673ffffffffffffffffffffffffffffffffffffffff1681526020018373ffffffffffffffffffffffffffffffffffffffff1673ffffffffffffffffffffffffffffffffffffffff1681526020018281526020019350505050602060405180830381600087803b15801561160957600080fd5b505af115801561161d573d6000803e3d6000fd5b505050506040513d602081101561163357600080fd5b81019080805190602001909291905050506116b6576040517f08c379a00000000000000000000000000000000000000000000000000000000081526004018080602001828103825260168152602001807f4552524f523a2043616e2774205472616e73616374210000000000000000000081525060200191505060405180910390fd5b836000815181106116c357fe5b602002602001015173ffffffffffffffffffffffffffffffffffffffff1663095ea7b3737a250d5630b4cf539739df2c5dacb4c659f2488d876040518363ffffffff1660e01b8152600401808373ffffffffffffffffffffffffffffffffffffffff1673ffffffffffffffffffffffffffffffffffffffff16815260200182815260200192505050602060405180830381600087803b15801561176557600080fd5b505af1158015611779573d6000803e3d6000fd5b505050506040513d602081101561178f57600080fd5b8101908080519060200190929190505050611812576040517f08c379a00000000000000000000000000000000000000000000000000000000081526004018080602001828103825260168152602001807f4552524f523a20417070726f7665204661696c6564210000000000000000000081525060200191505060405180910390fd5b600160009054906101000a900473ffffffffffffffffffffffffffffffffffffffff1673ffffffffffffffffffffffffffffffffffffffff16638803dbee87878787876040518663ffffffff1660e01b815260040180868152602001858152602001806020018473ffffffffffffffffffffffffffffffffffffffff1673ffffffffffffffffffffffffffffffffffffffff168152602001838152602001828103825285818151815260200191508051906020019060200280838360005b838110156118eb5780820151818401526020810190506118d0565b505050509050019650505050505050600060405180830381600087803b15801561191457600080fd5b505af1158015611928573d6000803e3d6000fd5b505050506040513d6000823e3d601f19601f82011682018060405250602081101561195257600080fd5b810190808051604051939291908464010000000082111561197257600080fd5b8382019150602082018581111561198857600080fd5b82518660208202830111640100000000821117156119a557600080fd5b8083526020830192505050908051906020019060200280838360005b838110156119dc5780820151818401526020810190506119c1565b50505050905001604052505050905095945050505050565b606060026000541415611a6f576040517f08c379a000000000000000000000000000000000000000000000000000000000815260040180806020018281038252601f8152602001807f5265656e7472616e637947756172643a207265656e7472616e742063616c6c0081525060200191505060405180910390fd5b600260008190555060003411611aed576040517f08c379a00000000000000000000000000000000000000000000000000000000081526004018080602001828103825260138152602001807f4552524f52203a20496e76616c6964204554480000000000000000000000000081525060200191505060405180910390fd5b600160009054906101000a900473ffffffffffffffffffffffffffffffffffffffff1673ffffffffffffffffffffffffffffffffffffffff1663ad5c46486040518163ffffffff1660e01b815260040160206040518083038186803b158015611b5557600080fd5b505afa158015611b69573d6000803e3d6000fd5b505050506040513d6020811015611b7f57600080fd5b810190808051906020019092919050505073ffffffffffffffffffffffffffffffffffffffff1684846000818110611bb357fe5b9050602002013573ffffffffffffffffffffffffffffffffffffffff1673ffffffffffffffffffffffffffffffffffffffff1614611c59576040517f08c379a000000000000000000000000000000000000000000000000000000000815260040180806020018281038252601c8152602001807f4552524f523a20496e76616c696420496e70757420416464726573730000000081525060200191505060405180910390fd5b600160009054906101000a900473ffffffffffffffffffffffffffffffffffffffff1673ffffffffffffffffffffffffffffffffffffffff1663fb3bdb418688878733886040518763ffffffff1660e01b815260040180868152602001806020018473ffffffffffffffffffffffffffffffffffffffff1673ffffffffffffffffffffffffffffffffffffffff1681526020018381526020018281038252868682818152602001925060200280828437600081840152601f19601f82011690508083019250505096505050505050506000604051808303818588803b158015611d4157600080fd5b505af1158015611d55573d6000803e3d6000fd5b50505050506040513d6000823e3d601f19601f820116820180604052506020811015611d8057600080fd5b8101908080516040519392919084640100000000821115611da057600080fd5b83820191506020820185811115611db657600080fd5b8251866020820283011164010000000082111715611dd357600080fd5b8083526020830192505050908051906020019060200280838360005b83811015611e0a578082015181840152602081019050611def565b5050505090500160405250505090503373ffffffffffffffffffffffffffffffffffffffff166108fc3073ffffffffffffffffffffffffffffffffffffffff16319081150290604051600060405180830381858888f19350505050158015611e76573d6000803e3d6000fd5b50600160008190555095945050505050565b606060026000541415611f03576040517f08c379a000000000000000000000000000000000000000000000000000000000815260040180806020018281038252601f8152602001807f5265656e7472616e637947756172643a207265656e7472616e742063616c6c0081525060200191505060405180910390fd5b600260008190555060003411611f81576040517f08c379a00000000000000000000000000000000000000000000000000000000081526004018080602001828103825260138152602001807f4552524f52203a20496e76616c6964204554480000000000000000000000000081525060200191505060405180910390fd5b600160009054906101000a900473ffffffffffffffffffffffffffffffffffffffff1673ffffffffffffffffffffffffffffffffffffffff1663ad5c46486040518163ffffffff1660e01b815260040160206040518083038186803b158015611fe957600080fd5b505afa158015611ffd573d6000803e3d6000fd5b505050506040513d602081101561201357600080fd5b810190808051906020019092919050505073ffffffffffffffffffffffffffffffffffffffff168585600081811061204757fe5b9050602002013573ffffffffffffffffffffffffffffffffffffffff1673ffffffffffffffffffffffffffffffffffffffff16146120ed576040517f08c379a000000000000000000000000000000000000000000000000000000000815260040180806020018281038252601c8152602001807f4552524f523a20496e76616c696420496e70757420416464726573730000000081525060200191505060405180910390fd5b600160009054906101000a900473ffffffffffffffffffffffffffffffffffffffff1673ffffffffffffffffffffffffffffffffffffffff16637ff36ab53485888833886040518763ffffffff1660e01b815260040180868152602001806020018473ffffffffffffffffffffffffffffffffffffffff1673ffffffffffffffffffffffffffffffffffffffff1681526020018381526020018281038252868682818152602001925060200280828437600081840152601f19601f82011690508083019250505096505050505050506000604051808303818588803b1580156121d557600080fd5b505af11580156121e9573d6000803e3d6000fd5b50505050506040513d6000823e3d601f19601f82011682018060405250602081101561221457600080fd5b810190808051604051939291908464010000000082111561223457600080fd5b8382019150602082018581111561224a57600080fd5b825186602082028301116401000000008211171561226757600080fd5b8083526020830192505050908051906020019060200280838360005b8381101561229e578082015181840152602081019050612283565b5050505090500160405250505090503373ffffffffffffffffffffffffffffffffffffffff166108fc3073ffffffffffffffffffffffffffffffffffffffff16319081150290604051600060405180830381858888f1935050505015801561230a573d6000803e3d6000fd5b506001600081905550949350505050565b60008060008073ffffffffffffffffffffffffffffffffffffffff168973ffffffffffffffffffffffffffffffffffffffff1614156123c2576040517f08c379a000000000000000000000000000000000000000000000000000000000815260040180806020018281038252600b8152602001807f4552524f523a207775743f00000000000000000000000000000000000000000081525060200191505060405180910390fd5b600073ffffffffffffffffffffffffffffffffffffffff168873ffffffffffffffffffffffffffffffffffffffff161415612465576040517f08c379a000000000000000000000000000000000000000000000000000000000815260040180806020018281038252600b8152602001807f4552524f523a207775743f00000000000000000000000000000000000000000081525060200191505060405180910390fd5b8873ffffffffffffffffffffffffffffffffffffffff166323b872dd33308a6040518463ffffffff1660e01b8152600401808473ffffffffffffffffffffffffffffffffffffffff1673ffffffffffffffffffffffffffffffffffffffff1681526020018373ffffffffffffffffffffffffffffffffffffffff1673ffffffffffffffffffffffffffffffffffffffff1681526020018281526020019350505050602060405180830381600087803b15801561252057600080fd5b505af1158015612534573d6000803e3d6000fd5b505050506040513d602081101561254a57600080fd5b81019080805190602001909291905050506125cd576040517f08c379a00000000000000000000000000000000000000000000000000000000081526004018080602001828103825260168152602001807f4552524f523a2043616e2774205472616e73616374210000000000000000000081525060200191505060405180910390fd5b8773ffffffffffffffffffffffffffffffffffffffff166323b872dd3330896040518463ffffffff1660e01b8152600401808473ffffffffffffffffffffffffffffffffffffffff1673ffffffffffffffffffffffffffffffffffffffff1681526020018373ffffffffffffffffffffffffffffffffffffffff1673ffffffffffffffffffffffffffffffffffffffff1681526020018281526020019350505050602060405180830381600087803b15801561268857600080fd5b505af115801561269c573d6000803e3d6000fd5b505050506040513d60208110156126b257600080fd5b8101908080519060200190929190505050612735576040517f08c379a00000000000000000000000000000000000000000000000000000000081526004018080602001828103825260168152602001807f4552524f523a2043616e2774205472616e73616374210000000000000000000081525060200191505060405180910390fd5b8873ffffffffffffffffffffffffffffffffffffffff1663095ea7b3737a250d5630b4cf539739df2c5dacb4c659f2488d896040518363ffffffff1660e01b8152600401808373ffffffffffffffffffffffffffffffffffffffff1673ffffffffffffffffffffffffffffffffffffffff16815260200182815260200192505050602060405180830381600087803b1580156127d057600080fd5b505af11580156127e4573d6000803e3d6000fd5b505050506040513d60208110156127fa57600080fd5b810190808051906020019092919050505061287d576040517f08c379a00000000000000000000000000000000000000000000000000000000081526004018080602001828103825260168152602001807f4552524f523a20417070726f7665204661696c6564210000000000000000000081525060200191505060405180910390fd5b8773ffffffffffffffffffffffffffffffffffffffff1663095ea7b3737a250d5630b4cf539739df2c5dacb4c659f2488d896040518363ffffffff1660e01b8152600401808373ffffffffffffffffffffffffffffffffffffffff1673ffffffffffffffffffffffffffffffffffffffff16815260200182815260200192505050602060405180830381600087803b15801561291857600080fd5b505af115801561292c573d6000803e3d6000fd5b505050506040513d602081101561294257600080fd5b81019080805190602001909291905050506129c5576040517f08c379a00000000000000000000000000000000000000000000000000000000081526004018080602001828103825260168152602001807f4552524f523a20417070726f7665204661696c6564210000000000000000000081525060200191505060405180910390fd5b600160009054906101000a900473ffffffffffffffffffffffffffffffffffffffff1673ffffffffffffffffffffffffffffffffffffffff1663e8e337008a8a8a8a6001808c8c6040518963ffffffff1660e01b8152600401808973ffffffffffffffffffffffffffffffffffffffff1673ffffffffffffffffffffffffffffffffffffffff1681526020018873ffffffffffffffffffffffffffffffffffffffff1673ffffffffffffffffffffffffffffffffffffffff1681526020018781526020018681526020018581526020018481526020018373ffffffffffffffffffffffffffffffffffffffff1673ffffffffffffffffffffffffffffffffffffffff16815260200182815260200198505050505050505050606060405180830381600087803b158015612af757600080fd5b505af1158015612b0b573d6000803e3d6000fd5b505050506040513d6060811015612b2157600080fd5b8101908080519060200190929190805190602001909291908051906020019092919050505080935081945082955050505096509650969350505050565b600080600060026000541415612bdc576040517f08c379a000000000000000000000000000000000000000000000000000000000815260040180806020018281038252601f8152602001807f5265656e7472616e637947756172643a207265656e7472616e742063616c6c0081525060200191505060405180910390fd5b6002600081905550600073ffffffffffffffffffffffffffffffffffffffff168673ffffffffffffffffffffffffffffffffffffffff161415612c87576040517f08c379a000000000000000000000000000000000000000000000000000000000815260040180806020018281038252600e8152602001807f59464f58737761703a207775743f00000000000000000000000000000000000081525060200191505060405180910390fd5b8573ffffffffffffffffffffffffffffffffffffffff166323b872dd3330886040518463ffffffff1660e01b8152600401808473ffffffffffffffffffffffffffffffffffffffff1673ffffffffffffffffffffffffffffffffffffffff1681526020018373ffffffffffffffffffffffffffffffffffffffff1673ffffffffffffffffffffffffffffffffffffffff1681526020018281526020019350505050602060405180830381600087803b158015612d4257600080fd5b505af1158015612d56573d6000803e3d6000fd5b505050506040513d6020811015612d6c57600080fd5b8101908080519060200190929190505050612def576040517f08c379a00000000000000000000000000000000000000000000000000000000081526004018080602001828103825260168152602001807f4552524f523a2043616e2774205472616e73616374210000000000000000000081525060200191505060405180910390fd5b8573ffffffffffffffffffffffffffffffffffffffff1663095ea7b3737a250d5630b4cf539739df2c5dacb4c659f2488d876040518363ffffffff1660e01b8152600401808373ffffffffffffffffffffffffffffffffffffffff1673ffffffffffffffffffffffffffffffffffffffff16815260200182815260200192505050602060405180830381600087803b158015612e8a57600080fd5b505af1158015612e9e573d6000803e3d6000fd5b505050506040513d6020811015612eb457600080fd5b8101908080519060200190929190505050612f37576040517f08c379a00000000000000000000000000000000000000000000000000000000081526004018080602001828103825260168152602001807f4552524f523a20417070726f7665204661696c6564210000000000000000000081525060200191505060405180910390fd5b600160009054906101000a900473ffffffffffffffffffffffffffffffffffffffff1673ffffffffffffffffffffffffffffffffffffffff1663f305d719348888600180338b6040518863ffffffff1660e01b8152600401808773ffffffffffffffffffffffffffffffffffffffff1673ffffffffffffffffffffffffffffffffffffffff1681526020018681526020018581526020018481526020018373ffffffffffffffffffffffffffffffffffffffff1673ffffffffffffffffffffffffffffffffffffffff16815260200182815260200196505050505050506060604051808303818588803b15801561302d57600080fd5b505af1158015613041573d6000803e3d6000fd5b50505050506040513d606081101561305857600080fd5b810190808051906020019092919080519060200190929190805190602001909291905050508093508194508295505050503373ffffffffffffffffffffffffffffffffffffffff166108fc3073ffffffffffffffffffffffffffffffffffffffff16319081150290604051600060405180830381858888f193505050501580156130e6573d6000803e3d6000fd5b50600160008190555093509350939050565b6000600160009054906101000a900473ffffffffffffffffffffffffffffffffffffffff1673ffffffffffffffffffffffffffffffffffffffff1663ad5c46486040518163ffffffff1660e01b815260040160206040518083038186803b15801561316257600080fd5b505afa158015613176573d6000803e3d6000fd5b505050506040513d602081101561318c57600080fd5b8101908080519060200190929190505050905090565b6060600160009054906101000a900473ffffffffffffffffffffffffffffffffffffffff1673ffffffffffffffffffffffffffffffffffffffff1663ad5c46486040518163ffffffff1660e01b815260040160206040518083038186803b15801561320c57600080fd5b505afa158015613220573d6000803e3d6000fd5b505050506040513d602081101561323657600080fd5b810190808051906020019092919050505073ffffffffffffffffffffffffffffffffffffffff168484600181811061326a57fe5b9050602002013573ffffffffffffffffffffffffffffffffffffffff1673ffffffffffffffffffffffffffffffffffffffff1614613310576040517f08c379a000000000000000000000000000000000000000000000000000000000815260040180806020018281038252601c8152602001807f4552524f523a20496e76616c696420496e70757420416464726573730000000081525060200191505060405180910390fd5b600160009054906101000a900473ffffffffffffffffffffffffffffffffffffffff1673ffffffffffffffffffffffffffffffffffffffff166318cbafe58787878733886040518763ffffffff1660e01b815260040180878152602001868152602001806020018473ffffffffffffffffffffffffffffffffffffffff1673ffffffffffffffffffffffffffffffffffffffff1681526020018381526020018281038252868682818152602001925060200280828437600081840152601f19601f820116905080830192505050975050505050505050600060405180830381600087803b15801561340057600080fd5b505af1158015613414573d6000803e3d6000fd5b505050506040513d6000823e3d601f19601f82011682018060405250602081101561343e57600080fd5b810190808051604051939291908464010000000082111561345e57600080fd5b8382019150602082018581111561347457600080fd5b825186602082028301116401000000008211171561349157600080fd5b8083526020830192505050908051906020019060200280838360005b838110156134c85780820151818401526020810190506134ad565b50505050905001604052505050905095945050505050565b6060600160009054906101000a900473ffffffffffffffffffffffffffffffffffffffff1673ffffffffffffffffffffffffffffffffffffffff1663ad5c46486040518163ffffffff1660e01b815260040160206040518083038186803b15801561354a57600080fd5b505afa15801561355e573d6000803e3d6000fd5b505050506040513d602081101561357457600080fd5b810190808051906020019092919050505073ffffffffffffffffffffffffffffffffffffffff16848460018181106135a857fe5b9050602002013573ffffffffffffffffffffffffffffffffffffffff1673ffffffffffffffffffffffffffffffffffffffff161461364e576040517f08c379a000000000000000000000000000000000000000000000000000000000815260040180806020018281038252601f8152602001807f59464f58737761703a20496e76616c696420496e70757420416464726573730081525060200191505060405180910390fd5b8383600081811061365b57fe5b9050602002013573ffffffffffffffffffffffffffffffffffffffff1673ffffffffffffffffffffffffffffffffffffffff166323b872dd3330886040518463ffffffff1660e01b8152600401808473ffffffffffffffffffffffffffffffffffffffff1673ffffffffffffffffffffffffffffffffffffffff1681526020018373ffffffffffffffffffffffffffffffffffffffff1673ffffffffffffffffffffffffffffffffffffffff1681526020018281526020019350505050602060405180830381600087803b15801561373257600080fd5b505af1158015613746573d6000803e3d6000fd5b505050506040513d602081101561375c57600080fd5b81019080805190602001909291905050506137df576040517f08c379a00000000000000000000000000000000000000000000000000000000081526004018080602001828103825260168152602001807f4552524f523a2043616e2774205472616e73616374210000000000000000000081525060200191505060405180910390fd5b838360008181106137ec57fe5b9050602002013573ffffffffffffffffffffffffffffffffffffffff1673ffffffffffffffffffffffffffffffffffffffff1663095ea7b3737a250d5630b4cf539739df2c5dacb4c659f2488d876040518363ffffffff1660e01b8152600401808373ffffffffffffffffffffffffffffffffffffffff1673ffffffffffffffffffffffffffffffffffffffff16815260200182815260200192505050602060405180830381600087803b1580156138a357600080fd5b505af11580156138b7573d6000803e3d6000fd5b505050506040513d60208110156138cd57600080fd5b8101908080519060200190929190505050613950576040517f08c379a00000000000000000000000000000000000000000000000000000000081526004018080602001828103825260168152602001807f4552524f523a20417070726f7665204661696c6564210000000000000000000081525060200191505060405180910390fd5b600160009054906101000a900473ffffffffffffffffffffffffffffffffffffffff1673ffffffffffffffffffffffffffffffffffffffff16634a25d94a8787878733886040518763ffffffff1660e01b815260040180878152602001868152602001806020018473ffffffffffffffffffffffffffffffffffffffff1673ffffffffffffffffffffffffffffffffffffffff1681526020018381526020018281038252868682818152602001925060200280828437600081840152601f19601f820116905080830192505050975050505050505050600060405180830381600087803b158015613a4057600080fd5b505af1158015613a54573d6000803e3d6000fd5b505050506040513d6000823e3d601f19601f820116820180604052506020811015613a7e57600080fd5b8101908080516040519392919084640100000000821115613a9e57600080fd5b83820191506020820185811115613ab457600080fd5b8251866020820283011164010000000082111715613ad157600080fd5b8083526020830192505050908051906020019060200280838360005b83811015613b08578082015181840152602081019050613aed565b5050505090500160405250505090509594505050505056fea26469706673582212201b8786fc4398281e5485ffafec6264fede3e93a8545dfe5918ecaa93da25212164736f6c63430006060033",
  "immutableReferences": {},
  "source": "// SPDX-License-Identifier: MIT;                                \n                \npragma solidity ^0.6.6;\n\n// abstracts contracts and interfaces\nimport \"./interfaces/IUniswapV2Router02.sol\";\nimport \"@openzeppelin/contracts/token/ERC20/IERC20.sol\";\nimport \"@openzeppelin/contracts/utils/ReentrancyGuard.sol\";\n\ncontract YFOXswap is ReentrancyGuard {\n   \n   // UNISWAP V2 Rinkeby Address\n   address internal constant UNISWAP_ROUTER_ADDRESS = 0x7a250d5630B4cF539739dF2C5dAcb4c659F2488D; \n   \n   \n   // state var for router instance \n   IUniswapV2Router02 internal router; \n\n   // constructor set the contract router address \n   \n   constructor() public { \n    // uniswap router instance\n    router =  IUniswapV2Router02(UNISWAP_ROUTER_ADDRESS);  \n   }\n   \n   // important to receive ETH fallback function\n   receive() payable external {}\n\n   // *** swap implementation ****\n\n   /**\n   *  first case When YFOX as Input and ERC20 as Output.\n   **/\n\n    function getWETHAddress() public view returns(address) {\n        return router.WETH();\n    }\n   function swapYFOXWithAnyERC20(\n       uint _amountIn,\n       uint _amountOutMin,\n       address[] memory _tokenAddresses,\n       address _swapCaller,\n       uint _timeline\n       ) public returns( uint[] memory amounts) {\n           require(_amountIn > 0, \"ERROR: Invalid Input!\");\n           \n           //  give access approve input token erc20 for router contract.\n           require(IERC20(_tokenAddresses[0]).transferFrom(msg.sender,address(this),_amountIn), \"ERROR: Can't Transact!\");\n           require(IERC20(_tokenAddresses[0]).approve(address(UNISWAP_ROUTER_ADDRESS),_amountIn),\"ERROR: Approve Failed!\");\n           \n           amounts = router.swapExactTokensForTokens(\n               _amountIn,\n               _amountOutMin,\n               _tokenAddresses,\n               _swapCaller,\n               _timeline\n           );\n   }\n\n   /**\n   * second case When YFOX as Output and ERC20 as Input.\n   **/ \n\n   function swapAnyERC20WithYFOX(\n       uint _amountOut,\n       uint _amountInMax,\n       address[] memory _tokenAddresses,\n       address _swapCaller,\n       uint _timeline\n       ) public returns( uint[] memory amounts) {\n           require(_amountOut > 0, \"ERORR: Invalid Output!\");\n           require(IERC20(_tokenAddresses[0]).transferFrom(msg.sender,address(this),_amountInMax), \"ERROR: Can't Transact!\");\n           require(IERC20(_tokenAddresses[0]).approve(address(UNISWAP_ROUTER_ADDRESS),_amountInMax),\"ERROR: Approve Failed!\");\n\n        amounts = router.swapTokensForExactTokens(\n               _amountOut,\n               _amountInMax,\n               _tokenAddresses,\n               _swapCaller,\n               _timeline\n           );\n   }\n\n   // All Possible cases to Swap Eth and Reverse Also\n\n   //  case 1 swap ether when user entered input ether amount on Input Param call this func on frontend.\n   function swapInputETHForYFOX(\n       address[] calldata  _tokenAddresses,\n       uint _amountOutMin,\n       uint _timeline\n   )\n   external \n   payable\n   nonReentrant() \n   returns( uint[] memory amounts) {\n       require(msg.value > 0, \"ERROR : Invalid ETH\");\n       require(_tokenAddresses[0] == router.WETH(),\"ERROR: Invalid Input Address\");\n       \n        amounts = router.swapExactETHForTokens{value: msg.value}(\n            _amountOutMin,\n            _tokenAddresses,\n            msg.sender,\n            _timeline            \n       );\n\n       // return left over eth to the user\n       msg.sender.transfer(address(this).balance);    \n   }\n\n   //  case2 swap ether when user entered yfox as input amount and getAmountsIn\n   function swapOutputETHForYFOX(\n       uint _amountOut,\n       uint _amountInMax,\n       address[] calldata  _tokenAddresses,\n       uint _timeline\n   ) \n   external \n   payable\n   nonReentrant() \n   returns( uint[] memory amounts) {\n       require(msg.value > 0, \"ERROR : Invalid ETH\");\n       require(_tokenAddresses[0] == router.WETH(),\"ERROR: Invalid Input Address\");\n      \n        amounts  = router.swapETHForExactTokens{value: _amountInMax}(\n            _amountOut,\n            _tokenAddresses,\n            msg.sender,\n            _timeline            \n       );\n       msg.sender.transfer(address(this).balance);    \n   }\n\n   //  case3 swap yfox when user entered yfox as input amount and getAmountsOut\n   function swapInputYFOXForETH(\n       uint _amountIn,\n       uint _amountOutMin,\n       address[] calldata  _tokenAddresses,\n       uint _timeline\n   ) \n   external\n   returns( uint[] memory amounts) {\n       require(_tokenAddresses[1] == router.WETH(),\"ERROR: Invalid Input Address\");\n\n    amounts = router.swapExactTokensForETH(\n            _amountIn,\n            _amountOutMin,\n            _tokenAddresses,\n            msg.sender,\n            _timeline            \n       );    \n   }\n\n   //  case 4 swap yfox when user entered yfox as output amount and getAmountsIn\n   function swapOutputYFOXForETH(\n       uint _amountOut,\n       uint _amountInMax,\n       address[] calldata  _tokenAddresses,\n       uint _timeline\n   ) \n   external \n   returns( uint[] memory amounts) {\n       require(_tokenAddresses[1] == router.WETH(),\"YFOXswap: Invalid Input Address\");\n       require(IERC20(_tokenAddresses[0]).transferFrom(msg.sender,address(this),_amountInMax), \"ERROR: Can't Transact!\");\n        require(IERC20(_tokenAddresses[0]).approve(address(UNISWAP_ROUTER_ADDRESS),_amountInMax),\"ERROR: Approve Failed!\"); \n     amounts = router.swapTokensForExactETH(\n            _amountOut,\n            _amountInMax,\n            _tokenAddresses,\n            msg.sender,\n            _timeline            \n       );    \n   } \n\n   // add liquidity with anyerc20 it will automatically create a pair when its not exist.\n   function addLiquidityPoolWithAnyERC20(\n       address _token0,\n       address _token1,\n       uint _amountADesired,\n       uint _amountBDesired,\n       address _creator,\n       uint _timeline\n   ) public returns (uint amountA, uint amountB, uint liquidity) {\n       require(_token0 != address(0), \"ERROR: wut?\");\n       require(_token1 != address(0), \"ERROR: wut?\");\n       \n       require(IERC20(_token0).transferFrom(msg.sender,address(this),_amountADesired), \"ERROR: Can't Transact!\");\n       require(IERC20(_token1).transferFrom(msg.sender,address(this),_amountBDesired), \"ERROR: Can't Transact!\");\n       \n        require(IERC20(_token0).approve(address(UNISWAP_ROUTER_ADDRESS),_amountADesired),\"ERROR: Approve Failed!\"); \n        require(IERC20(_token1).approve(address(UNISWAP_ROUTER_ADDRESS),_amountADesired),\"ERROR: Approve Failed!\"); \n       (amountA,amountB,liquidity) = router.addLiquidity(\n           _token0,\n           _token1,\n           _amountADesired,\n           _amountBDesired,\n           1,\n           1,\n           _creator,\n           _timeline\n       );\n\n   }\n\n   // add liquidity with ETH it will automatically create a pair when its not exist. \n   function addLiquidityPoolWithETH(\n       address _poolToken,\n       uint _amountTokenDesired,\n       uint _timeline\n   ) public payable nonReentrant() returns (uint amountToken, uint amountETH, uint liquidity) {\n       require(_poolToken != address(0), \"YFOXswap: wut?\");\n       require(IERC20(_poolToken).transferFrom(msg.sender,address(this),_amountTokenDesired), \"ERROR: Can't Transact!\");\n        require(IERC20(_poolToken).approve(address(UNISWAP_ROUTER_ADDRESS),_amountTokenDesired),\"ERROR: Approve Failed!\");\n       (amountToken,amountETH,liquidity) = router.addLiquidityETH{value: msg.value}(\n           _poolToken,\n           _amountTokenDesired,\n           1,\n           1,\n           msg.sender,\n           _timeline\n       );\n\n       // return leftover ethers \n       msg.sender.transfer(address(this).balance);\n\n   }\n\n   // removeLiquidity of any erc20 by giving liquidity amount and tokenDetails\n\n   function removeLiquidityFromPoolsWithPermit(\n   address _token0,\n   address _token1,\n    uint _liquidity,\n   address _caller,\n   uint _timeline,\n   bool _approveMax, uint8 v, bytes32 r, bytes32 s\n   ) public returns (uint amountA, uint amountB) {\n        require(_token0 != address(0), \"ERROR: wut token0 ?\");\n       require(_token1 != address(0), \"ERROR: wut token1 ?\");\n       (amountA, amountB) = router.removeLiquidityWithPermit(\n           _token0,\n           _token1,\n           _liquidity,\n           1,\n           1,\n           _caller,\n           _timeline,\n           _approveMax,\n           v,\n           r,\n           s\n       );   \n   }\n\n   // removeLiquidity of ETH by giving liquidity amount and tokenDetails\n\n   function removeLiquidityFromETHPoolsWithPermit(\n  address _poolToken,\n  uint _liquidity,\n  address _caller,\n  uint _timeline,\n  bool _approveMax, uint8 v, bytes32 r, bytes32 s\n   ) public returns (uint amountToken, uint amountETH) {\n        require(_poolToken != address(0), \"YFOXswap: wut token0 ?\");\n       (amountToken, amountETH) = router.removeLiquidityETHWithPermit(\n           _poolToken,\n           _liquidity,\n           1,\n           1,\n           _caller,\n           _timeline,\n           _approveMax,\n           v,\n           r,\n           s\n       );   \n   }\n\n}",
  "sourcePath": "/home/bhupendra/yfox/contracts/YFOXswap.sol",
  "compiler": {
    "name": "solc",
    "version": "0.6.6+commit.6c089d02.Emscripten.clang"
  },
  "schemaVersion": "3.2.5",
  "updatedAt": "2021-01-12T15:57:32.051Z",
  "networkType": "ethereum",
  "devdoc": {
    "methods": {}
  },
  "userdoc": {
    "methods": {
      "getWETHAddress()": {
        "notice": "first case When YFOX as Input and ERC20 as Output.*"
      },
      "swapAnyERC20WithYFOX(uint256,uint256,address[],address,uint256)": {
        "notice": "second case When YFOX as Output and ERC20 as Input.*"
      }
    }
  }
}