{
  "contractName": "YFOXswap",
  "abi": [
    {
      "inputs": [],
      "stateMutability": "nonpayable",
      "type": "constructor"
    },
    {
      "stateMutability": "payable",
      "type": "receive",
      "payable": true
    },
    {
      "inputs": [
        {
          "internalType": "uint256",
          "name": "_amountIn",
          "type": "uint256"
        },
        {
          "internalType": "uint256",
          "name": "_amountOutMin",
          "type": "uint256"
        },
        {
          "internalType": "address[]",
          "name": "_tokenAddresses",
          "type": "address[]"
        },
        {
          "internalType": "address",
          "name": "_swapCaller",
          "type": "address"
        },
        {
          "internalType": "uint256",
          "name": "_timeline",
          "type": "uint256"
        }
      ],
      "name": "swapYFOXWithAnyERC20",
      "outputs": [
        {
          "internalType": "uint256[]",
          "name": "amounts",
          "type": "uint256[]"
        }
      ],
      "stateMutability": "nonpayable",
      "type": "function"
    },
    {
      "inputs": [
        {
          "internalType": "uint256",
          "name": "_amountOut",
          "type": "uint256"
        },
        {
          "internalType": "uint256",
          "name": "_amountInMax",
          "type": "uint256"
        },
        {
          "internalType": "address[]",
          "name": "_tokenAddresses",
          "type": "address[]"
        },
        {
          "internalType": "address",
          "name": "_swapCaller",
          "type": "address"
        },
        {
          "internalType": "uint256",
          "name": "_timeline",
          "type": "uint256"
        }
      ],
      "name": "swapAnyERC20WithYFOX",
      "outputs": [
        {
          "internalType": "uint256[]",
          "name": "amounts",
          "type": "uint256[]"
        }
      ],
      "stateMutability": "nonpayable",
      "type": "function"
    },
    {
      "inputs": [
        {
          "internalType": "address[]",
          "name": "_tokenAddresses",
          "type": "address[]"
        },
        {
          "internalType": "uint256",
          "name": "_amountOutMin",
          "type": "uint256"
        },
        {
          "internalType": "uint256",
          "name": "_timeline",
          "type": "uint256"
        }
      ],
      "name": "swapInputETHForYFOX",
      "outputs": [
        {
          "internalType": "uint256[]",
          "name": "amounts",
          "type": "uint256[]"
        }
      ],
      "stateMutability": "payable",
      "type": "function",
      "payable": true
    },
    {
      "inputs": [
        {
          "internalType": "uint256",
          "name": "_amountOut",
          "type": "uint256"
        },
        {
          "internalType": "uint256",
          "name": "_amountInMax",
          "type": "uint256"
        },
        {
          "internalType": "address[]",
          "name": "_tokenAddresses",
          "type": "address[]"
        },
        {
          "internalType": "uint256",
          "name": "_timeline",
          "type": "uint256"
        }
      ],
      "name": "swapOutputETHForYFOX",
      "outputs": [
        {
          "internalType": "uint256[]",
          "name": "amounts",
          "type": "uint256[]"
        }
      ],
      "stateMutability": "payable",
      "type": "function",
      "payable": true
    },
    {
      "inputs": [
        {
          "internalType": "uint256",
          "name": "_amountIn",
          "type": "uint256"
        },
        {
          "internalType": "uint256",
          "name": "_amountOutMin",
          "type": "uint256"
        },
        {
          "internalType": "address[]",
          "name": "_tokenAddresses",
          "type": "address[]"
        },
        {
          "internalType": "uint256",
          "name": "_timeline",
          "type": "uint256"
        }
      ],
      "name": "swapInputYFOXForETH",
      "outputs": [
        {
          "internalType": "uint256[]",
          "name": "amounts",
          "type": "uint256[]"
        }
      ],
      "stateMutability": "nonpayable",
      "type": "function"
    },
    {
      "inputs": [
        {
          "internalType": "uint256",
          "name": "_amountOut",
          "type": "uint256"
        },
        {
          "internalType": "uint256",
          "name": "_amountInMax",
          "type": "uint256"
        },
        {
          "internalType": "address[]",
          "name": "_tokenAddresses",
          "type": "address[]"
        },
        {
          "internalType": "uint256",
          "name": "_timeline",
          "type": "uint256"
        }
      ],
      "name": "swapOutputYFOXForETH",
      "outputs": [
        {
          "internalType": "uint256[]",
          "name": "amounts",
          "type": "uint256[]"
        }
      ],
      "stateMutability": "nonpayable",
      "type": "function"
    },
    {
      "inputs": [
        {
          "internalType": "address",
          "name": "_token0",
          "type": "address"
        },
        {
          "internalType": "address",
          "name": "_token1",
          "type": "address"
        },
        {
          "internalType": "uint256",
          "name": "_amountADesired",
          "type": "uint256"
        },
        {
          "internalType": "uint256",
          "name": "_amountBDesired",
          "type": "uint256"
        },
        {
          "internalType": "address",
          "name": "_creator",
          "type": "address"
        },
        {
          "internalType": "uint256",
          "name": "_timeline",
          "type": "uint256"
        }
      ],
      "name": "addLiquidityPoolWithAnyERC20",
      "outputs": [
        {
          "internalType": "uint256",
          "name": "amountA",
          "type": "uint256"
        },
        {
          "internalType": "uint256",
          "name": "amountB",
          "type": "uint256"
        },
        {
          "internalType": "uint256",
          "name": "liquidity",
          "type": "uint256"
        }
      ],
      "stateMutability": "nonpayable",
      "type": "function"
    },
    {
      "inputs": [
        {
          "internalType": "address",
          "name": "_poolToken",
          "type": "address"
        },
        {
          "internalType": "uint256",
          "name": "_amountTokenDesired",
          "type": "uint256"
        },
        {
          "internalType": "uint256",
          "name": "_timeline",
          "type": "uint256"
        }
      ],
      "name": "addLiquidityPoolWithETH",
      "outputs": [
        {
          "internalType": "uint256",
          "name": "amountToken",
          "type": "uint256"
        },
        {
          "internalType": "uint256",
          "name": "amountETH",
          "type": "uint256"
        },
        {
          "internalType": "uint256",
          "name": "liquidity",
          "type": "uint256"
        }
      ],
      "stateMutability": "payable",
      "type": "function",
      "payable": true
    },
    {
      "inputs": [
        {
          "internalType": "address",
          "name": "_token0",
          "type": "address"
        },
        {
          "internalType": "address",
          "name": "_token1",
          "type": "address"
        },
        {
          "internalType": "uint256",
          "name": "_liquidity",
          "type": "uint256"
        },
        {
          "internalType": "address",
          "name": "_caller",
          "type": "address"
        },
        {
          "internalType": "uint256",
          "name": "_timeline",
          "type": "uint256"
        },
        {
          "internalType": "bool",
          "name": "_approveMax",
          "type": "bool"
        },
        {
          "internalType": "uint8",
          "name": "v",
          "type": "uint8"
        },
        {
          "internalType": "bytes32",
          "name": "r",
          "type": "bytes32"
        },
        {
          "internalType": "bytes32",
          "name": "s",
          "type": "bytes32"
        }
      ],
      "name": "removeLiquidityFromPoolsWithPermit",
      "outputs": [
        {
          "internalType": "uint256",
          "name": "amountA",
          "type": "uint256"
        },
        {
          "internalType": "uint256",
          "name": "amountB",
          "type": "uint256"
        }
      ],
      "stateMutability": "nonpayable",
      "type": "function"
    },
    {
      "inputs": [
        {
          "internalType": "address",
          "name": "_poolToken",
          "type": "address"
        },
        {
          "internalType": "uint256",
          "name": "_liquidity",
          "type": "uint256"
        },
        {
          "internalType": "address",
          "name": "_caller",
          "type": "address"
        },
        {
          "internalType": "uint256",
          "name": "_timeline",
          "type": "uint256"
        },
        {
          "internalType": "bool",
          "name": "_approveMax",
          "type": "bool"
        },
        {
          "internalType": "uint8",
          "name": "v",
          "type": "uint8"
        },
        {
          "internalType": "bytes32",
          "name": "r",
          "type": "bytes32"
        },
        {
          "internalType": "bytes32",
          "name": "s",
          "type": "bytes32"
        }
      ],
      "name": "removeLiquidityFromETHPoolsWithPermit",
      "outputs": [
        {
          "internalType": "uint256",
          "name": "amountToken",
          "type": "uint256"
        },
        {
          "internalType": "uint256",
          "name": "amountETH",
          "type": "uint256"
        }
      ],
      "stateMutability": "nonpayable",
      "type": "function"
    },
    {
      "inputs": [
        {
          "internalType": "address",
          "name": "_tokenA",
          "type": "address"
        },
        {
          "internalType": "address",
          "name": "_tokenB",
          "type": "address"
        }
      ],
      "name": "getReservedPoolValue",
      "outputs": [
        {
          "internalType": "uint256",
          "name": "reserveA",
          "type": "uint256"
        },
        {
          "internalType": "uint256",
          "name": "reserveB",
          "type": "uint256"
        }
      ],
      "stateMutability": "view",
      "type": "function",
      "constant": true
    },
    {
      "inputs": [
        {
          "internalType": "uint256",
          "name": "_amount",
          "type": "uint256"
        },
        {
          "internalType": "address[]",
          "name": "_pairs",
          "type": "address[]"
        }
      ],
      "name": "liquidtyQuotes",
      "outputs": [
        {
          "internalType": "uint256",
          "name": "amountB",
          "type": "uint256"
        }
      ],
      "stateMutability": "view",
      "type": "function",
      "constant": true
    }
  ],
  "bytecode": "0x608060405234801561001057600080fd5b506001600081905550737a250d5630b4cf539739df2c5dacb4c659f2488d600160006101000a81548173ffffffffffffffffffffffffffffffffffffffff021916908373ffffffffffffffffffffffffffffffffffffffff160217905550613f818061007d6000396000f3fe6080604052600436106100ab5760003560e01c806382bc8d971161006457806382bc8d97146106b3578063a7d4e24114610795578063a90d35fe14610866578063de2bd9db146108e0578063e3a4e5e7146109d9578063fdbbb5e314610a65576100b2565b80632ad60751146100b75780634d62be0b1461020f57806352bed6e8146102fd57806365f16c64146103cb5780636b3bb2831461046f5780637a30ef5f146105c7576100b2565b366100b257005b600080fd5b3480156100c357600080fd5b506101b8600480360360a08110156100da57600080fd5b8101908080359060200190929190803590602001909291908035906020019064010000000081111561010b57600080fd5b82018360208201111561011d57600080fd5b8035906020019184602083028401116401000000008311171561013f57600080fd5b919080806020026020016040519081016040528093929190818152602001838360200280828437600081840152601f19601f820116905080830192505050505050509192919290803573ffffffffffffffffffffffffffffffffffffffff16906020019092919080359060200190929190505050610b5e565b6040518080602001828103825283818151815260200191508051906020019060200280838360005b838110156101fb5780820151818401526020810190506101e0565b505050509050019250505060405180910390f35b34801561021b57600080fd5b506102e0600480360361012081101561023357600080fd5b81019080803573ffffffffffffffffffffffffffffffffffffffff169060200190929190803573ffffffffffffffffffffffffffffffffffffffff16906020019092919080359060200190929190803573ffffffffffffffffffffffffffffffffffffffff16906020019092919080359060200190929190803515159060200190929190803560ff1690602001909291908035906020019092919080359060200190929190505050611090565b604051808381526020018281526020019250505060405180910390f35b34801561030957600080fd5b506103ae600480360361010081101561032157600080fd5b81019080803573ffffffffffffffffffffffffffffffffffffffff16906020019092919080359060200190929190803573ffffffffffffffffffffffffffffffffffffffff16906020019092919080359060200190929190803515159060200190929190803560ff1690602001909291908035906020019092919080359060200190929190505050611387565b604051808381526020018281526020019250505060405180910390f35b3480156103d757600080fd5b50610459600480360360408110156103ee57600080fd5b81019080803590602001909291908035906020019064010000000081111561041557600080fd5b82018360208201111561042757600080fd5b8035906020019184602083028401116401000000008311171561044957600080fd5b90919293919293905050506115a6565b6040518082815260200191505060405180910390f35b34801561047b57600080fd5b50610570600480360360a081101561049257600080fd5b810190808035906020019092919080359060200190929190803590602001906401000000008111156104c357600080fd5b8201836020820111156104d557600080fd5b803590602001918460208302840111640100000000831117156104f757600080fd5b919080806020026020016040519081016040528093929190818152602001838360200280828437600081840152601f19601f820116905080830192505050505050509192919290803573ffffffffffffffffffffffffffffffffffffffff16906020019092919080359060200190929190505050611636565b6040518080602001828103825283818151815260200191508051906020019060200280838360005b838110156105b3578082015181840152602081019050610598565b505050509050019250505060405180910390f35b61065c600480360360808110156105dd57600080fd5b8101908080359060200190929190803590602001909291908035906020019064010000000081111561060e57600080fd5b82018360208201111561062057600080fd5b8035906020019184602083028401116401000000008311171561064257600080fd5b909192939192939080359060200190929190505050611b68565b6040518080602001828103825283818151815260200191508051906020019060200280838360005b8381101561069f578082015181840152602081019050610684565b505050509050019250505060405180910390f35b61073e600480360360608110156106c957600080fd5b81019080803590602001906401000000008111156106e657600080fd5b8201836020820111156106f857600080fd5b8035906020019184602083028401116401000000008311171561071a57600080fd5b90919293919293908035906020019092919080359060200190929190505050611f15565b6040518080602001828103825283818151815260200191508051906020019060200280838360005b83811015610781578082015181840152602081019050610766565b505050509050019250505060405180910390f35b3480156107a157600080fd5b50610842600480360360c08110156107b857600080fd5b81019080803573ffffffffffffffffffffffffffffffffffffffff169060200190929190803573ffffffffffffffffffffffffffffffffffffffff1690602001909291908035906020019092919080359060200190929190803573ffffffffffffffffffffffffffffffffffffffff169060200190929190803590602001909291905050506122c1565b60405180848152602001838152602001828152602001935050505060405180910390f35b6108bc6004803603606081101561087c57600080fd5b81019080803573ffffffffffffffffffffffffffffffffffffffff1690602001909291908035906020019092919080359060200190929190505050612b04565b60405180848152602001838152602001828152602001935050505060405180910390f35b3480156108ec57600080fd5b506109826004803603608081101561090357600080fd5b8101908080359060200190929190803590602001909291908035906020019064010000000081111561093457600080fd5b82018360208201111561094657600080fd5b8035906020019184602083028401116401000000008311171561096857600080fd5b909192939192939080359060200190929190505050612fb6565b6040518080602001828103825283818151815260200191508051906020019060200280838360005b838110156109c55780820151818401526020810190506109aa565b505050509050019250505060405180910390f35b3480156109e557600080fd5b50610a48600480360360408110156109fc57600080fd5b81019080803573ffffffffffffffffffffffffffffffffffffffff169060200190929190803573ffffffffffffffffffffffffffffffffffffffff1690602001909291905050506132f4565b604051808381526020018281526020019250505060405180910390f35b348015610a7157600080fd5b50610b0760048036036080811015610a8857600080fd5b81019080803590602001909291908035906020019092919080359060200190640100000000811115610ab957600080fd5b820183602082011115610acb57600080fd5b80359060200191846020830284011164010000000083111715610aed57600080fd5b909192939192939080359060200190929190505050613325565b6040518080602001828103825283818151815260200191508051906020019060200280838360005b83811015610b4a578082015181840152602081019050610b2f565b505050509050019250505060405180910390f35b606060008611610bd6576040517f08c379a00000000000000000000000000000000000000000000000000000000081526004018080602001828103825260158152602001807f4552524f523a20496e76616c696420496e70757421000000000000000000000081525060200191505060405180910390fd5b83600081518110610be357fe5b602002602001015173ffffffffffffffffffffffffffffffffffffffff166323b872dd3330896040518463ffffffff1660e01b8152600401808473ffffffffffffffffffffffffffffffffffffffff1673ffffffffffffffffffffffffffffffffffffffff1681526020018373ffffffffffffffffffffffffffffffffffffffff1673ffffffffffffffffffffffffffffffffffffffff1681526020018281526020019350505050602060405180830381600087803b158015610ca557600080fd5b505af1158015610cb9573d6000803e3d6000fd5b505050506040513d6020811015610ccf57600080fd5b8101908080519060200190929190505050610d52576040517f08c379a00000000000000000000000000000000000000000000000000000000081526004018080602001828103825260168152602001807f4552524f523a2043616e2774205472616e73616374210000000000000000000081525060200191505060405180910390fd5b83600081518110610d5f57fe5b602002602001015173ffffffffffffffffffffffffffffffffffffffff1663095ea7b3737a250d5630b4cf539739df2c5dacb4c659f2488d886040518363ffffffff1660e01b8152600401808373ffffffffffffffffffffffffffffffffffffffff1673ffffffffffffffffffffffffffffffffffffffff16815260200182815260200192505050602060405180830381600087803b158015610e0157600080fd5b505af1158015610e15573d6000803e3d6000fd5b505050506040513d6020811015610e2b57600080fd5b8101908080519060200190929190505050610eae576040517f08c379a00000000000000000000000000000000000000000000000000000000081526004018080602001828103825260168152602001807f4552524f523a20417070726f7665204661696c6564210000000000000000000081525060200191505060405180910390fd5b600160009054906101000a900473ffffffffffffffffffffffffffffffffffffffff1673ffffffffffffffffffffffffffffffffffffffff166338ed173987878787876040518663ffffffff1660e01b815260040180868152602001858152602001806020018473ffffffffffffffffffffffffffffffffffffffff1673ffffffffffffffffffffffffffffffffffffffff168152602001838152602001828103825285818151815260200191508051906020019060200280838360005b83811015610f87578082015181840152602081019050610f6c565b505050509050019650505050505050600060405180830381600087803b158015610fb057600080fd5b505af1158015610fc4573d6000803e3d6000fd5b505050506040513d6000823e3d601f19601f820116820180604052506020811015610fee57600080fd5b810190808051604051939291908464010000000082111561100e57600080fd5b8382019150602082018581111561102457600080fd5b825186602082028301116401000000008211171561104157600080fd5b8083526020830192505050908051906020019060200280838360005b8381101561107857808201518184015260208101905061105d565b50505050905001604052505050905095945050505050565b600080600073ffffffffffffffffffffffffffffffffffffffff168b73ffffffffffffffffffffffffffffffffffffffff161415611136576040517f08c379a00000000000000000000000000000000000000000000000000000000081526004018080602001828103825260138152602001807f4552524f523a2077757420746f6b656e30203f0000000000000000000000000081525060200191505060405180910390fd5b600073ffffffffffffffffffffffffffffffffffffffff168a73ffffffffffffffffffffffffffffffffffffffff1614156111d9576040517f08c379a00000000000000000000000000000000000000000000000000000000081526004018080602001828103825260138152602001807f4552524f523a2077757420746f6b656e31203f0000000000000000000000000081525060200191505060405180910390fd5b600160009054906101000a900473ffffffffffffffffffffffffffffffffffffffff1673ffffffffffffffffffffffffffffffffffffffff16632195995c8c8c8c6001808e8e8e8e8e8e6040518c63ffffffff1660e01b8152600401808c73ffffffffffffffffffffffffffffffffffffffff1673ffffffffffffffffffffffffffffffffffffffff1681526020018b73ffffffffffffffffffffffffffffffffffffffff1673ffffffffffffffffffffffffffffffffffffffff1681526020018a81526020018981526020018881526020018773ffffffffffffffffffffffffffffffffffffffff1673ffffffffffffffffffffffffffffffffffffffff168152602001868152602001851515151581526020018460ff1660ff1681526020018381526020018281526020019b5050505050505050505050506040805180830381600087803b15801561132c57600080fd5b505af1158015611340573d6000803e3d6000fd5b505050506040513d604081101561135657600080fd5b8101908080519060200190929190805190602001909291905050508092508193505050995099975050505050505050565b600080600073ffffffffffffffffffffffffffffffffffffffff168a73ffffffffffffffffffffffffffffffffffffffff16141561142d576040517f08c379a00000000000000000000000000000000000000000000000000000000081526004018080602001828103825260168152602001807f59464f58737761703a2077757420746f6b656e30203f0000000000000000000081525060200191505060405180910390fd5b600160009054906101000a900473ffffffffffffffffffffffffffffffffffffffff1673ffffffffffffffffffffffffffffffffffffffff1663ded9382a8b8b6001808d8d8d8d8d8d6040518b63ffffffff1660e01b8152600401808b73ffffffffffffffffffffffffffffffffffffffff1673ffffffffffffffffffffffffffffffffffffffff1681526020018a81526020018981526020018881526020018773ffffffffffffffffffffffffffffffffffffffff1673ffffffffffffffffffffffffffffffffffffffff168152602001868152602001851515151581526020018460ff1660ff1681526020018381526020018281526020019a50505050505050505050506040805180830381600087803b15801561154c57600080fd5b505af1158015611560573d6000803e3d6000fd5b505050506040513d604081101561157657600080fd5b81019080805190602001909291908051906020019092919050505080925081935050509850989650505050505050565b600080600061161c735c69bee701ef814a2b6a3edd4b1652cb9cc5aa6f868660008181106115d057fe5b9050602002013573ffffffffffffffffffffffffffffffffffffffff16878760018181106115fa57fe5b9050602002013573ffffffffffffffffffffffffffffffffffffffff16613965565b9150915061162b868383613a8e565b925050509392505050565b6060600086116116ae576040517f08c379a00000000000000000000000000000000000000000000000000000000081526004018080602001828103825260168152602001807f45524f52523a20496e76616c6964204f7574707574210000000000000000000081525060200191505060405180910390fd5b836000815181106116bb57fe5b602002602001015173ffffffffffffffffffffffffffffffffffffffff166323b872dd3330886040518463ffffffff1660e01b8152600401808473ffffffffffffffffffffffffffffffffffffffff1673ffffffffffffffffffffffffffffffffffffffff1681526020018373ffffffffffffffffffffffffffffffffffffffff1673ffffffffffffffffffffffffffffffffffffffff1681526020018281526020019350505050602060405180830381600087803b15801561177d57600080fd5b505af1158015611791573d6000803e3d6000fd5b505050506040513d60208110156117a757600080fd5b810190808051906020019092919050505061182a576040517f08c379a00000000000000000000000000000000000000000000000000000000081526004018080602001828103825260168152602001807f4552524f523a2043616e2774205472616e73616374210000000000000000000081525060200191505060405180910390fd5b8360008151811061183757fe5b602002602001015173ffffffffffffffffffffffffffffffffffffffff1663095ea7b3737a250d5630b4cf539739df2c5dacb4c659f2488d876040518363ffffffff1660e01b8152600401808373ffffffffffffffffffffffffffffffffffffffff1673ffffffffffffffffffffffffffffffffffffffff16815260200182815260200192505050602060405180830381600087803b1580156118d957600080fd5b505af11580156118ed573d6000803e3d6000fd5b505050506040513d602081101561190357600080fd5b8101908080519060200190929190505050611986576040517f08c379a00000000000000000000000000000000000000000000000000000000081526004018080602001828103825260168152602001807f4552524f523a20417070726f7665204661696c6564210000000000000000000081525060200191505060405180910390fd5b600160009054906101000a900473ffffffffffffffffffffffffffffffffffffffff1673ffffffffffffffffffffffffffffffffffffffff16638803dbee87878787876040518663ffffffff1660e01b815260040180868152602001858152602001806020018473ffffffffffffffffffffffffffffffffffffffff1673ffffffffffffffffffffffffffffffffffffffff168152602001838152602001828103825285818151815260200191508051906020019060200280838360005b83811015611a5f578082015181840152602081019050611a44565b505050509050019650505050505050600060405180830381600087803b158015611a8857600080fd5b505af1158015611a9c573d6000803e3d6000fd5b505050506040513d6000823e3d601f19601f820116820180604052506020811015611ac657600080fd5b8101908080516040519392919084640100000000821115611ae657600080fd5b83820191506020820185811115611afc57600080fd5b8251866020820283011164010000000082111715611b1957600080fd5b8083526020830192505050908051906020019060200280838360005b83811015611b50578082015181840152602081019050611b35565b50505050905001604052505050905095945050505050565b606060003411611be0576040517f08c379a00000000000000000000000000000000000000000000000000000000081526004018080602001828103825260138152602001807f4552524f52203a20496e76616c6964204554480000000000000000000000000081525060200191505060405180910390fd5b600160009054906101000a900473ffffffffffffffffffffffffffffffffffffffff1673ffffffffffffffffffffffffffffffffffffffff1663ad5c46486040518163ffffffff1660e01b815260040160206040518083038186803b158015611c4857600080fd5b505afa158015611c5c573d6000803e3d6000fd5b505050506040513d6020811015611c7257600080fd5b810190808051906020019092919050505073ffffffffffffffffffffffffffffffffffffffff1684846000818110611ca657fe5b9050602002013573ffffffffffffffffffffffffffffffffffffffff1673ffffffffffffffffffffffffffffffffffffffff1614611d4c576040517f08c379a000000000000000000000000000000000000000000000000000000000815260040180806020018281038252601c8152602001807f4552524f523a20496e76616c696420496e70757420416464726573730000000081525060200191505060405180910390fd5b600160009054906101000a900473ffffffffffffffffffffffffffffffffffffffff1673ffffffffffffffffffffffffffffffffffffffff1663fb3bdb418688878733886040518763ffffffff1660e01b815260040180868152602001806020018473ffffffffffffffffffffffffffffffffffffffff1673ffffffffffffffffffffffffffffffffffffffff1681526020018381526020018281038252868682818152602001925060200280828437600081840152601f19601f82011690508083019250505096505050505050506000604051808303818588803b158015611e3457600080fd5b505af1158015611e48573d6000803e3d6000fd5b50505050506040513d6000823e3d601f19601f820116820180604052506020811015611e7357600080fd5b8101908080516040519392919084640100000000821115611e9357600080fd5b83820191506020820185811115611ea957600080fd5b8251866020820283011164010000000082111715611ec657600080fd5b8083526020830192505050908051906020019060200280838360005b83811015611efd578082015181840152602081019050611ee2565b50505050905001604052505050905095945050505050565b606060003411611f8d576040517f08c379a00000000000000000000000000000000000000000000000000000000081526004018080602001828103825260138152602001807f4552524f52203a20496e76616c6964204554480000000000000000000000000081525060200191505060405180910390fd5b600160009054906101000a900473ffffffffffffffffffffffffffffffffffffffff1673ffffffffffffffffffffffffffffffffffffffff1663ad5c46486040518163ffffffff1660e01b815260040160206040518083038186803b158015611ff557600080fd5b505afa158015612009573d6000803e3d6000fd5b505050506040513d602081101561201f57600080fd5b810190808051906020019092919050505073ffffffffffffffffffffffffffffffffffffffff168585600081811061205357fe5b9050602002013573ffffffffffffffffffffffffffffffffffffffff1673ffffffffffffffffffffffffffffffffffffffff16146120f9576040517f08c379a000000000000000000000000000000000000000000000000000000000815260040180806020018281038252601c8152602001807f4552524f523a20496e76616c696420496e70757420416464726573730000000081525060200191505060405180910390fd5b600160009054906101000a900473ffffffffffffffffffffffffffffffffffffffff1673ffffffffffffffffffffffffffffffffffffffff16637ff36ab53485888833886040518763ffffffff1660e01b815260040180868152602001806020018473ffffffffffffffffffffffffffffffffffffffff1673ffffffffffffffffffffffffffffffffffffffff1681526020018381526020018281038252868682818152602001925060200280828437600081840152601f19601f82011690508083019250505096505050505050506000604051808303818588803b1580156121e157600080fd5b505af11580156121f5573d6000803e3d6000fd5b50505050506040513d6000823e3d601f19601f82011682018060405250602081101561222057600080fd5b810190808051604051939291908464010000000082111561224057600080fd5b8382019150602082018581111561225657600080fd5b825186602082028301116401000000008211171561227357600080fd5b8083526020830192505050908051906020019060200280838360005b838110156122aa57808201518184015260208101905061228f565b505050509050016040525050509050949350505050565b60008060008073ffffffffffffffffffffffffffffffffffffffff168973ffffffffffffffffffffffffffffffffffffffff161415612368576040517f08c379a000000000000000000000000000000000000000000000000000000000815260040180806020018281038252600b8152602001807f4552524f523a207775743f00000000000000000000000000000000000000000081525060200191505060405180910390fd5b600073ffffffffffffffffffffffffffffffffffffffff168873ffffffffffffffffffffffffffffffffffffffff16141561240b576040517f08c379a000000000000000000000000000000000000000000000000000000000815260040180806020018281038252600b8152602001807f4552524f523a207775743f00000000000000000000000000000000000000000081525060200191505060405180910390fd5b8873ffffffffffffffffffffffffffffffffffffffff166323b872dd33308a6040518463ffffffff1660e01b8152600401808473ffffffffffffffffffffffffffffffffffffffff1673ffffffffffffffffffffffffffffffffffffffff1681526020018373ffffffffffffffffffffffffffffffffffffffff1673ffffffffffffffffffffffffffffffffffffffff1681526020018281526020019350505050602060405180830381600087803b1580156124c657600080fd5b505af11580156124da573d6000803e3d6000fd5b505050506040513d60208110156124f057600080fd5b8101908080519060200190929190505050612573576040517f08c379a00000000000000000000000000000000000000000000000000000000081526004018080602001828103825260168152602001807f4552524f523a2043616e2774205472616e73616374210000000000000000000081525060200191505060405180910390fd5b8773ffffffffffffffffffffffffffffffffffffffff166323b872dd3330896040518463ffffffff1660e01b8152600401808473ffffffffffffffffffffffffffffffffffffffff1673ffffffffffffffffffffffffffffffffffffffff1681526020018373ffffffffffffffffffffffffffffffffffffffff1673ffffffffffffffffffffffffffffffffffffffff1681526020018281526020019350505050602060405180830381600087803b15801561262e57600080fd5b505af1158015612642573d6000803e3d6000fd5b505050506040513d602081101561265857600080fd5b81019080805190602001909291905050506126db576040517f08c379a00000000000000000000000000000000000000000000000000000000081526004018080602001828103825260168152602001807f4552524f523a2043616e2774205472616e73616374210000000000000000000081525060200191505060405180910390fd5b8873ffffffffffffffffffffffffffffffffffffffff1663095ea7b3737a250d5630b4cf539739df2c5dacb4c659f2488d896040518363ffffffff1660e01b8152600401808373ffffffffffffffffffffffffffffffffffffffff1673ffffffffffffffffffffffffffffffffffffffff16815260200182815260200192505050602060405180830381600087803b15801561277657600080fd5b505af115801561278a573d6000803e3d6000fd5b505050506040513d60208110156127a057600080fd5b8101908080519060200190929190505050612823576040517f08c379a00000000000000000000000000000000000000000000000000000000081526004018080602001828103825260168152602001807f4552524f523a20417070726f7665204661696c6564210000000000000000000081525060200191505060405180910390fd5b8773ffffffffffffffffffffffffffffffffffffffff1663095ea7b3737a250d5630b4cf539739df2c5dacb4c659f2488d896040518363ffffffff1660e01b8152600401808373ffffffffffffffffffffffffffffffffffffffff1673ffffffffffffffffffffffffffffffffffffffff16815260200182815260200192505050602060405180830381600087803b1580156128be57600080fd5b505af11580156128d2573d6000803e3d6000fd5b505050506040513d60208110156128e857600080fd5b810190808051906020019092919050505061296b576040517f08c379a00000000000000000000000000000000000000000000000000000000081526004018080602001828103825260168152602001807f4552524f523a20417070726f7665204661696c6564210000000000000000000081525060200191505060405180910390fd5b600160009054906101000a900473ffffffffffffffffffffffffffffffffffffffff1673ffffffffffffffffffffffffffffffffffffffff1663e8e337008a8a8a8a6001808c8c6040518963ffffffff1660e01b8152600401808973ffffffffffffffffffffffffffffffffffffffff1673ffffffffffffffffffffffffffffffffffffffff1681526020018873ffffffffffffffffffffffffffffffffffffffff1673ffffffffffffffffffffffffffffffffffffffff1681526020018781526020018681526020018581526020018481526020018373ffffffffffffffffffffffffffffffffffffffff1673ffffffffffffffffffffffffffffffffffffffff16815260200182815260200198505050505050505050606060405180830381600087803b158015612a9d57600080fd5b505af1158015612ab1573d6000803e3d6000fd5b505050506040513d6060811015612ac757600080fd5b8101908080519060200190929190805190602001909291908051906020019092919050505080935081945082955050505096509650969350505050565b60008060008073ffffffffffffffffffffffffffffffffffffffff168673ffffffffffffffffffffffffffffffffffffffff161415612bab576040517f08c379a000000000000000000000000000000000000000000000000000000000815260040180806020018281038252600e8152602001807f59464f58737761703a207775743f00000000000000000000000000000000000081525060200191505060405180910390fd5b8573ffffffffffffffffffffffffffffffffffffffff166323b872dd3330886040518463ffffffff1660e01b8152600401808473ffffffffffffffffffffffffffffffffffffffff1673ffffffffffffffffffffffffffffffffffffffff1681526020018373ffffffffffffffffffffffffffffffffffffffff1673ffffffffffffffffffffffffffffffffffffffff1681526020018281526020019350505050602060405180830381600087803b158015612c6657600080fd5b505af1158015612c7a573d6000803e3d6000fd5b505050506040513d6020811015612c9057600080fd5b8101908080519060200190929190505050612d13576040517f08c379a00000000000000000000000000000000000000000000000000000000081526004018080602001828103825260168152602001807f4552524f523a2043616e2774205472616e73616374210000000000000000000081525060200191505060405180910390fd5b8573ffffffffffffffffffffffffffffffffffffffff1663095ea7b3737a250d5630b4cf539739df2c5dacb4c659f2488d876040518363ffffffff1660e01b8152600401808373ffffffffffffffffffffffffffffffffffffffff1673ffffffffffffffffffffffffffffffffffffffff16815260200182815260200192505050602060405180830381600087803b158015612dae57600080fd5b505af1158015612dc2573d6000803e3d6000fd5b505050506040513d6020811015612dd857600080fd5b8101908080519060200190929190505050612e5b576040517f08c379a00000000000000000000000000000000000000000000000000000000081526004018080602001828103825260168152602001807f4552524f523a20417070726f7665204661696c6564210000000000000000000081525060200191505060405180910390fd5b600160009054906101000a900473ffffffffffffffffffffffffffffffffffffffff1673ffffffffffffffffffffffffffffffffffffffff1663f305d719348888600180338b6040518863ffffffff1660e01b8152600401808773ffffffffffffffffffffffffffffffffffffffff1673ffffffffffffffffffffffffffffffffffffffff1681526020018681526020018581526020018481526020018373ffffffffffffffffffffffffffffffffffffffff1673ffffffffffffffffffffffffffffffffffffffff16815260200182815260200196505050505050506060604051808303818588803b158015612f5157600080fd5b505af1158015612f65573d6000803e3d6000fd5b50505050506040513d6060811015612f7c57600080fd5b8101908080519060200190929190805190602001909291908051906020019092919050505080935081945082955050505093509350939050565b6060600160009054906101000a900473ffffffffffffffffffffffffffffffffffffffff1673ffffffffffffffffffffffffffffffffffffffff1663ad5c46486040518163ffffffff1660e01b815260040160206040518083038186803b15801561302057600080fd5b505afa158015613034573d6000803e3d6000fd5b505050506040513d602081101561304a57600080fd5b810190808051906020019092919050505073ffffffffffffffffffffffffffffffffffffffff168484600181811061307e57fe5b9050602002013573ffffffffffffffffffffffffffffffffffffffff1673ffffffffffffffffffffffffffffffffffffffff1614613124576040517f08c379a000000000000000000000000000000000000000000000000000000000815260040180806020018281038252601c8152602001807f4552524f523a20496e76616c696420496e70757420416464726573730000000081525060200191505060405180910390fd5b600160009054906101000a900473ffffffffffffffffffffffffffffffffffffffff1673ffffffffffffffffffffffffffffffffffffffff166318cbafe58787878733886040518763ffffffff1660e01b815260040180878152602001868152602001806020018473ffffffffffffffffffffffffffffffffffffffff1673ffffffffffffffffffffffffffffffffffffffff1681526020018381526020018281038252868682818152602001925060200280828437600081840152601f19601f820116905080830192505050975050505050505050600060405180830381600087803b15801561321457600080fd5b505af1158015613228573d6000803e3d6000fd5b505050506040513d6000823e3d601f19601f82011682018060405250602081101561325257600080fd5b810190808051604051939291908464010000000082111561327257600080fd5b8382019150602082018581111561328857600080fd5b82518660208202830111640100000000821117156132a557600080fd5b8083526020830192505050908051906020019060200280838360005b838110156132dc5780820151818401526020810190506132c1565b50505050905001604052505050905095945050505050565b600080613316735c69bee701ef814a2b6a3edd4b1652cb9cc5aa6f8585613965565b80925081935050509250929050565b6060600160009054906101000a900473ffffffffffffffffffffffffffffffffffffffff1673ffffffffffffffffffffffffffffffffffffffff1663ad5c46486040518163ffffffff1660e01b815260040160206040518083038186803b15801561338f57600080fd5b505afa1580156133a3573d6000803e3d6000fd5b505050506040513d60208110156133b957600080fd5b810190808051906020019092919050505073ffffffffffffffffffffffffffffffffffffffff16848460018181106133ed57fe5b9050602002013573ffffffffffffffffffffffffffffffffffffffff1673ffffffffffffffffffffffffffffffffffffffff1614613493576040517f08c379a000000000000000000000000000000000000000000000000000000000815260040180806020018281038252601f8152602001807f59464f58737761703a20496e76616c696420496e70757420416464726573730081525060200191505060405180910390fd5b838360008181106134a057fe5b9050602002013573ffffffffffffffffffffffffffffffffffffffff1673ffffffffffffffffffffffffffffffffffffffff166323b872dd3330886040518463ffffffff1660e01b8152600401808473ffffffffffffffffffffffffffffffffffffffff1673ffffffffffffffffffffffffffffffffffffffff1681526020018373ffffffffffffffffffffffffffffffffffffffff1673ffffffffffffffffffffffffffffffffffffffff1681526020018281526020019350505050602060405180830381600087803b15801561357757600080fd5b505af115801561358b573d6000803e3d6000fd5b505050506040513d60208110156135a157600080fd5b8101908080519060200190929190505050613624576040517f08c379a00000000000000000000000000000000000000000000000000000000081526004018080602001828103825260168152602001807f4552524f523a2043616e2774205472616e73616374210000000000000000000081525060200191505060405180910390fd5b8383600081811061363157fe5b9050602002013573ffffffffffffffffffffffffffffffffffffffff1673ffffffffffffffffffffffffffffffffffffffff1663095ea7b3737a250d5630b4cf539739df2c5dacb4c659f2488d876040518363ffffffff1660e01b8152600401808373ffffffffffffffffffffffffffffffffffffffff1673ffffffffffffffffffffffffffffffffffffffff16815260200182815260200192505050602060405180830381600087803b1580156136e857600080fd5b505af11580156136fc573d6000803e3d6000fd5b505050506040513d602081101561371257600080fd5b8101908080519060200190929190505050613795576040517f08c379a00000000000000000000000000000000000000000000000000000000081526004018080602001828103825260168152602001807f4552524f523a20417070726f7665204661696c6564210000000000000000000081525060200191505060405180910390fd5b600160009054906101000a900473ffffffffffffffffffffffffffffffffffffffff1673ffffffffffffffffffffffffffffffffffffffff16634a25d94a8787878733886040518763ffffffff1660e01b815260040180878152602001868152602001806020018473ffffffffffffffffffffffffffffffffffffffff1673ffffffffffffffffffffffffffffffffffffffff1681526020018381526020018281038252868682818152602001925060200280828437600081840152601f19601f820116905080830192505050975050505050505050600060405180830381600087803b15801561388557600080fd5b505af1158015613899573d6000803e3d6000fd5b505050506040513d6000823e3d601f19601f8201168201806040525060208110156138c357600080fd5b81019080805160405193929190846401000000008211156138e357600080fd5b838201915060208201858111156138f957600080fd5b825186602082028301116401000000008211171561391657600080fd5b8083526020830192505050908051906020019060200280838360005b8381101561394d578082015181840152602081019050613932565b50505050905001604052505050905095945050505050565b60008060006139748585613b72565b509050600080613985888888613ce9565b73ffffffffffffffffffffffffffffffffffffffff16630902f1ac6040518163ffffffff1660e01b815260040160606040518083038186803b1580156139ca57600080fd5b505afa1580156139de573d6000803e3d6000fd5b505050506040513d60608110156139f457600080fd5b81019080805190602001909291908051906020019092919080519060200190929190505050506dffffffffffffffffffffffffffff1691506dffffffffffffffffffffffffffff1691508273ffffffffffffffffffffffffffffffffffffffff168773ffffffffffffffffffffffffffffffffffffffff1614613a78578082613a7b565b81815b8095508196505050505050935093915050565b6000808411613ae8576040517f08c379a0000000000000000000000000000000000000000000000000000000008152600401808060200182810382526025815260200180613f276025913960400191505060405180910390fd5b600083118015613af85750600082115b613b4d576040517f08c379a0000000000000000000000000000000000000000000000000000000008152600401808060200182810382526028815260200180613eff6028913960400191505060405180910390fd5b82613b618386613e4490919063ffffffff16565b81613b6857fe5b0490509392505050565b6000808273ffffffffffffffffffffffffffffffffffffffff168473ffffffffffffffffffffffffffffffffffffffff161415613bfa576040517f08c379a0000000000000000000000000000000000000000000000000000000008152600401808060200182810382526025815260200180613eda6025913960400191505060405180910390fd5b8273ffffffffffffffffffffffffffffffffffffffff168473ffffffffffffffffffffffffffffffffffffffff1610613c34578284613c37565b83835b8092508193505050600073ffffffffffffffffffffffffffffffffffffffff168273ffffffffffffffffffffffffffffffffffffffff161415613ce2576040517f08c379a000000000000000000000000000000000000000000000000000000000815260040180806020018281038252601e8152602001807f556e697377617056324c6962726172793a205a45524f5f41444452455353000081525060200191505060405180910390fd5b9250929050565b6000806000613cf88585613b72565b91509150858282604051602001808373ffffffffffffffffffffffffffffffffffffffff1673ffffffffffffffffffffffffffffffffffffffff1660601b81526014018273ffffffffffffffffffffffffffffffffffffffff1673ffffffffffffffffffffffffffffffffffffffff1660601b8152601401925050506040516020818303038152906040528051906020012060405160200180807fff000000000000000000000000000000000000000000000000000000000000008152506001018373ffffffffffffffffffffffffffffffffffffffff1673ffffffffffffffffffffffffffffffffffffffff1660601b8152601401828152602001807f96e8ac4277198ff8b6f785478aa9a39f403cb768dd02cbee326c3e7da348845f815250602001925050506040516020818303038152906040528051906020012060001c925050509392505050565b600080821480613e615750828283850292508281613e5e57fe5b04145b613ed3576040517f08c379a00000000000000000000000000000000000000000000000000000000081526004018080602001828103825260148152602001807f64732d6d6174682d6d756c2d6f766572666c6f7700000000000000000000000081525060200191505060405180910390fd5b9291505056fe556e697377617056324c6962726172793a204944454e544943414c5f414444524553534553556e697377617056324c6962726172793a20494e53554646494349454e545f4c4951554944495459556e697377617056324c6962726172793a20494e53554646494349454e545f414d4f554e54a26469706673582212205b997b926d14f66e6b5bae6404b16a572d3ab1391cba00ac8002e9f489b1a1e564736f6c63430006060033",
  "immutableReferences": {},
  "source": "// SPDX-License-Identifier: MIT;                                \n                \npragma solidity ^0.6.6;\n\n// abstracts contracts and interfaces\nimport \"@uniswap/v2-periphery/contracts/interfaces/IUniswapV2Router02.sol\";\nimport  \"@uniswap/v2-periphery/contracts/libraries/UniswapV2Library.sol\";\nimport \"@openzeppelin/contracts/token/ERC20/IERC20.sol\";\nimport \"@openzeppelin/contracts/utils/ReentrancyGuard.sol\";\n\ncontract YFOXswap is ReentrancyGuard {\n   \n   // router rinkeby address\n   address internal constant UNISWAP_ROUTER_ADDRESS = 0x7a250d5630B4cF539739dF2C5dAcb4c659F2488D; \n   \n   // factory on rinkeby\n   address internal constant factory = 0x5C69bEe701ef814a2B6a3EDD4B1652CB9cc5aA6f;\n   \n   // state var for router instance \n   IUniswapV2Router02 internal router; \n\n   // constructor set the contract router address \n   constructor() public { \n    // uniswap router instance\n    router =  IUniswapV2Router02(UNISWAP_ROUTER_ADDRESS);  \n   }\n   \n   // important to receive ETH fallback function\n   receive() payable external {}\n\n   // *** swap implementation ****\n\n   /**\n   *  first case When YFOX as Input and ERC20 as Output.\n   **/\n\n   function swapYFOXWithAnyERC20(\n       uint _amountIn,\n       uint _amountOutMin,\n       address[] memory _tokenAddresses,\n       address _swapCaller,\n       uint _timeline\n       ) public returns( uint[] memory amounts) {\n           require(_amountIn > 0, \"ERROR: Invalid Input!\");\n           \n           //  give access approve input token erc20 for router contract.\n           require(IERC20(_tokenAddresses[0]).transferFrom(msg.sender,address(this),_amountIn), \"ERROR: Can't Transact!\");\n           require(IERC20(_tokenAddresses[0]).approve(address(UNISWAP_ROUTER_ADDRESS),_amountIn),\"ERROR: Approve Failed!\");\n           \n           amounts = router.swapExactTokensForTokens(\n               _amountIn,\n               _amountOutMin,\n               _tokenAddresses,\n               _swapCaller,\n               _timeline\n           );\n   }\n\n   /**\n   * second case When YFOX as Output and ERC20 as Input.\n   **/ \n\n   function swapAnyERC20WithYFOX(\n       uint _amountOut,\n       uint _amountInMax,\n       address[] memory _tokenAddresses,\n       address _swapCaller,\n       uint _timeline\n       ) public returns( uint[] memory amounts) {\n           require(_amountOut > 0, \"ERORR: Invalid Output!\");\n           require(IERC20(_tokenAddresses[0]).transferFrom(msg.sender,address(this),_amountInMax), \"ERROR: Can't Transact!\");\n           require(IERC20(_tokenAddresses[0]).approve(address(UNISWAP_ROUTER_ADDRESS),_amountInMax),\"ERROR: Approve Failed!\");\n\n        amounts = router.swapTokensForExactTokens(\n               _amountOut,\n               _amountInMax,\n               _tokenAddresses,\n               _swapCaller,\n               _timeline\n           );\n   }\n\n   // All Possible cases to Swap Eth and Reverse Also\n\n   //  case 1 swap ether when user entered input ether amount on Input Param call this func on frontend.\n   function swapInputETHForYFOX(\n       address[] calldata  _tokenAddresses,\n       uint _amountOutMin,\n       uint _timeline\n   ) \n   external \n   payable \n   returns( uint[] memory amounts) {\n       require(msg.value > 0, \"ERROR : Invalid ETH\");\n       require(_tokenAddresses[0] == router.WETH(),\"ERROR: Invalid Input Address\");\n       \n        amounts = router.swapExactETHForTokens{value: msg.value}(\n            _amountOutMin,\n            _tokenAddresses,\n            msg.sender,\n            _timeline            \n       );    \n   }\n\n   //  case2 swap ether when user entered yfox as input amount and getAmountsIn\n   function swapOutputETHForYFOX(\n       uint _amountOut,\n       uint _amountInMax,\n       address[] calldata  _tokenAddresses,\n       uint _timeline\n   ) \n   external \n   payable \n   returns( uint[] memory amounts) {\n       require(msg.value > 0, \"ERROR : Invalid ETH\");\n       require(_tokenAddresses[0] == router.WETH(),\"ERROR: Invalid Input Address\");\n      \n        amounts  = router.swapETHForExactTokens{value: _amountInMax}(\n            _amountOut,\n            _tokenAddresses,\n            msg.sender,\n            _timeline            \n       );    \n   }\n\n   //  case3 swap yfox when user entered yfox as input amount and getAmountsOut\n   function swapInputYFOXForETH(\n       uint _amountIn,\n       uint _amountOutMin,\n       address[] calldata  _tokenAddresses,\n       uint _timeline\n   ) \n   external\n   returns( uint[] memory amounts) {\n       require(_tokenAddresses[1] == router.WETH(),\"ERROR: Invalid Input Address\");\n\n    amounts = router.swapExactTokensForETH(\n            _amountIn,\n            _amountOutMin,\n            _tokenAddresses,\n            msg.sender,\n            _timeline            \n       );    \n   }\n\n   //  case 4 swap yfox when user entered yfox as output amount and getAmountsIn\n   function swapOutputYFOXForETH(\n       uint _amountOut,\n       uint _amountInMax,\n       address[] calldata  _tokenAddresses,\n       uint _timeline\n   ) \n   external \n   returns( uint[] memory amounts) {\n       require(_tokenAddresses[1] == router.WETH(),\"YFOXswap: Invalid Input Address\");\n       require(IERC20(_tokenAddresses[0]).transferFrom(msg.sender,address(this),_amountInMax), \"ERROR: Can't Transact!\");\n        require(IERC20(_tokenAddresses[0]).approve(address(UNISWAP_ROUTER_ADDRESS),_amountInMax),\"ERROR: Approve Failed!\"); \n     amounts = router.swapTokensForExactETH(\n            _amountOut,\n            _amountInMax,\n            _tokenAddresses,\n            msg.sender,\n            _timeline            \n       );    \n   } \n\n   // add liquidity with anyerc20 it will automatically create a pair when its not exist.\n   function addLiquidityPoolWithAnyERC20(\n       address _token0,\n       address _token1,\n       uint _amountADesired,\n       uint _amountBDesired,\n       address _creator,\n       uint _timeline\n   ) public returns (uint amountA, uint amountB, uint liquidity) {\n       require(_token0 != address(0), \"ERROR: wut?\");\n       require(_token1 != address(0), \"ERROR: wut?\");\n       \n       require(IERC20(_token0).transferFrom(msg.sender,address(this),_amountADesired), \"ERROR: Can't Transact!\");\n       require(IERC20(_token1).transferFrom(msg.sender,address(this),_amountBDesired), \"ERROR: Can't Transact!\");\n       \n        require(IERC20(_token0).approve(address(UNISWAP_ROUTER_ADDRESS),_amountADesired),\"ERROR: Approve Failed!\"); \n        require(IERC20(_token1).approve(address(UNISWAP_ROUTER_ADDRESS),_amountADesired),\"ERROR: Approve Failed!\"); \n       (amountA,amountB,liquidity) = router.addLiquidity(\n           _token0,\n           _token1,\n           _amountADesired,\n           _amountBDesired,\n           1,\n           1,\n           _creator,\n           _timeline\n       );\n\n   }\n\n   // add liquidity with ETH it will automatically create a pair when its not exist. \n   function addLiquidityPoolWithETH(\n       address _poolToken,\n       uint _amountTokenDesired,\n       uint _timeline\n   ) public payable returns (uint amountToken, uint amountETH, uint liquidity) {\n       require(_poolToken != address(0), \"YFOXswap: wut?\");\n       require(IERC20(_poolToken).transferFrom(msg.sender,address(this),_amountTokenDesired), \"ERROR: Can't Transact!\");\n        require(IERC20(_poolToken).approve(address(UNISWAP_ROUTER_ADDRESS),_amountTokenDesired),\"ERROR: Approve Failed!\");\n       (amountToken,amountETH,liquidity) = router.addLiquidityETH{value: msg.value}(\n           _poolToken,\n           _amountTokenDesired,\n           1,\n           1,\n           msg.sender,\n           _timeline\n       );\n\n   }\n\n   // removeLiquidity of any erc20 by giving liquidity amount and tokenDetails\n\n   function removeLiquidityFromPoolsWithPermit(\n   address _token0,\n   address _token1,\n    uint _liquidity,\n   address _caller,\n   uint _timeline,\n   bool _approveMax, uint8 v, bytes32 r, bytes32 s\n   ) public returns (uint amountA, uint amountB) {\n        require(_token0 != address(0), \"ERROR: wut token0 ?\");\n       require(_token1 != address(0), \"ERROR: wut token1 ?\");\n       (amountA, amountB) = router.removeLiquidityWithPermit(\n           _token0,\n           _token1,\n           _liquidity,\n           1,\n           1,\n           _caller,\n           _timeline,\n           _approveMax,\n           v,\n           r,\n           s\n       );   \n   }\n\n   // removeLiquidity of ETH by giving liquidity amount and tokenDetails\n\n   function removeLiquidityFromETHPoolsWithPermit(\n  address _poolToken,\n  uint _liquidity,\n  address _caller,\n  uint _timeline,\n  bool _approveMax, uint8 v, bytes32 r, bytes32 s\n   ) public returns (uint amountToken, uint amountETH) {\n        require(_poolToken != address(0), \"YFOXswap: wut token0 ?\");\n       (amountToken, amountETH) = router.removeLiquidityETHWithPermit(\n           _poolToken,\n           _liquidity,\n           1,\n           1,\n           _caller,\n           _timeline,\n           _approveMax,\n           v,\n           r,\n           s\n       );   \n   }\n\n   // get some Utility Func of @Uniswap\n    \n  function getReservedPoolValue(\n      address _tokenA,\n       address _tokenB\n       ) external view returns( uint reserveA, uint reserveB) {\n          (reserveA,reserveB) = UniswapV2Library.getReserves(factory,_tokenA,_tokenB); \n  }\n\n // get value of another token when adding Liquidity on frontend.   \n  function liquidtyQuotes(\n      uint _amount, \n      address[] calldata _pairs\n      ) external \n         view \n         returns(uint amountB) {\n      (uint reserveA,uint reserveB) = UniswapV2Library.getReserves(factory,_pairs[0],_pairs[1]);\n      amountB = UniswapV2Library.quote(_amount,reserveA,reserveB);\n  }  \n\n\n}",
  "sourcePath": "/home/bhupendra/yfox/contracts/YFOXswap.sol",
  "compiler": {
    "name": "solc",
    "version": "0.6.6+commit.6c089d02.Emscripten.clang"
  },
  "schemaVersion": "3.2.5",
  "updatedAt": "2021-01-07T06:06:54.628Z",
  "networkType": "ethereum",
  "devdoc": {
    "methods": {}
  },
  "userdoc": {
    "methods": {
      "swapAnyERC20WithYFOX(uint256,uint256,address[],address,uint256)": {
        "notice": "second case When YFOX as Output and ERC20 as Input.*"
      },
      "swapYFOXWithAnyERC20(uint256,uint256,address[],address,uint256)": {
        "notice": "first case When YFOX as Input and ERC20 as Output.*"
      }
    }
  }
}